{"abi":[{"type":"constructor","inputs":[{"name":"identityVerificationHubAddress","type":"address","internalType":"address"},{"name":"scopeSeed","type":"string","internalType":"string"},{"name":"configId","type":"bytes32","internalType":"bytes32"},{"name":"targetNationalitiesAlpha3","type":"string[]","internalType":"string[]"},{"name":"minAge_","type":"uint256","internalType":"uint256"}],"stateMutability":"nonpayable"},{"type":"function","name":"getCensusRoot","inputs":[],"outputs":[{"name":"root","type":"uint256","internalType":"uint256"}],"stateMutability":"view"},{"type":"function","name":"getConfigId","inputs":[{"name":"","type":"bytes32","internalType":"bytes32"},{"name":"","type":"bytes32","internalType":"bytes32"},{"name":"","type":"bytes","internalType":"bytes"}],"outputs":[{"name":"","type":"bytes32","internalType":"bytes32"}],"stateMutability":"view"},{"type":"function","name":"getRootBlockNumber","inputs":[{"name":"root","type":"uint256","internalType":"uint256"}],"outputs":[{"name":"blockNumber","type":"uint256","internalType":"uint256"}],"stateMutability":"view"},{"type":"function","name":"leafOf","inputs":[{"name":"user","type":"address","internalType":"address"}],"outputs":[{"name":"","type":"uint256","internalType":"uint256"}],"stateMutability":"pure"},{"type":"function","name":"minAge","inputs":[],"outputs":[{"name":"","type":"uint256","internalType":"uint256"}],"stateMutability":"view"},{"type":"function","name":"nullifierUsed","inputs":[{"name":"nullifier","type":"uint256","internalType":"uint256"}],"outputs":[{"name":"used","type":"bool","internalType":"bool"}],"stateMutability":"view"},{"type":"function","name":"onVerificationSuccess","inputs":[{"name":"output","type":"bytes","internalType":"bytes"},{"name":"userData","type":"bytes","internalType":"bytes"}],"outputs":[],"stateMutability":"nonpayable"},{"type":"function","name":"owner","inputs":[],"outputs":[{"name":"","type":"address","internalType":"address"}],"stateMutability":"view"},{"type":"function","name":"renounceOwnership","inputs":[],"outputs":[],"stateMutability":"nonpayable"},{"type":"function","name":"scope","inputs":[],"outputs":[{"name":"","type":"uint256","internalType":"uint256"}],"stateMutability":"view"},{"type":"function","name":"setConfigId","inputs":[{"name":"configId","type":"bytes32","internalType":"bytes32"}],"outputs":[],"stateMutability":"nonpayable"},{"type":"function","name":"targetNationalityHashAt","inputs":[{"name":"index","type":"uint256","internalType":"uint256"}],"outputs":[{"name":"","type":"bytes32","internalType":"bytes32"}],"stateMutability":"view"},{"type":"function","name":"targetNationalityHashesLength","inputs":[],"outputs":[{"name":"","type":"uint256","internalType":"uint256"}],"stateMutability":"view"},{"type":"function","name":"transferOwnership","inputs":[{"name":"newOwner","type":"address","internalType":"address"}],"outputs":[],"stateMutability":"nonpayable"},{"type":"function","name":"treeDepth","inputs":[],"outputs":[{"name":"","type":"uint256","internalType":"uint256"}],"stateMutability":"view"},{"type":"function","name":"treeSize","inputs":[],"outputs":[{"name":"","type":"uint256","internalType":"uint256"}],"stateMutability":"view"},{"type":"function","name":"verificationConfigId","inputs":[],"outputs":[{"name":"","type":"bytes32","internalType":"bytes32"}],"stateMutability":"view"},{"type":"function","name":"verifySelfProof","inputs":[{"name":"proofPayload","type":"bytes","internalType":"bytes"},{"name":"userContextData","type":"bytes","internalType":"bytes"}],"outputs":[],"stateMutability":"nonpayable"},{"type":"function","name":"weightOf","inputs":[{"name":"","type":"address","internalType":"address"}],"outputs":[{"name":"","type":"uint88","internalType":"uint88"}],"stateMutability":"view"},{"type":"event","name":"OwnershipTransferred","inputs":[{"name":"previousOwner","type":"address","indexed":true,"internalType":"address"},{"name":"newOwner","type":"address","indexed":true,"internalType":"address"}],"anonymous":false},{"type":"event","name":"Registered","inputs":[{"name":"user","type":"address","indexed":true,"internalType":"address"},{"name":"nullifier","type":"uint256","indexed":true,"internalType":"uint256"},{"name":"leaf","type":"uint256","indexed":false,"internalType":"uint256"},{"name":"newRoot","type":"uint256","indexed":false,"internalType":"uint256"}],"anonymous":false},{"type":"event","name":"WeightChanged","inputs":[{"name":"account","type":"address","indexed":true,"internalType":"address"},{"name":"previousWeight","type":"uint88","indexed":false,"internalType":"uint88"},{"name":"newWeight","type":"uint88","indexed":false,"internalType":"uint88"}],"anonymous":false},{"type":"error","name":"AlreadyRegisteredAddress","inputs":[]},{"type":"error","name":"DuplicateNationality","inputs":[]},{"type":"error","name":"InvalidDataFormat","inputs":[]},{"type":"error","name":"InvalidNationalityList","inputs":[]},{"type":"error","name":"LeafAlreadyExists","inputs":[]},{"type":"error","name":"LeafCannotBeZero","inputs":[]},{"type":"error","name":"LeafGreaterThanSnarkScalarField","inputs":[]},{"type":"error","name":"NotAdult","inputs":[]},{"type":"error","name":"NullifierAlreadyUsed","inputs":[]},{"type":"error","name":"OwnableInvalidOwner","inputs":[{"name":"owner","type":"address","internalType":"address"}]},{"type":"error","name":"OwnableUnauthorizedAccount","inputs":[{"name":"account","type":"address","internalType":"address"}]},{"type":"error","name":"UnauthorizedCaller","inputs":[]},{"type":"error","name":"WrongNationality","inputs":[]}],"bytecode":{"object":"0x60c060405234801561000f575f5ffd5b5060405161348638038061348683398181016040528101906100319190610dd1565b61003f6102bd60201b60201c565b85858173ffffffffffffffffffffffffffffffffffffffff1660808173ffffffffffffffffffffffffffffffffffffffff168152505061009330826100886102c460201b60201c565b61031e60201b60201c565b5f8190555050505f73ffffffffffffffffffffffffffffffffffffffff168173ffffffffffffffffffffffffffffffffffffffff160361010a575f6040517f1e4fbdf70000000000000000000000000000000000000000000000000000000081526004016101019190610e8f565b60405180910390fd5b6101198161041760201b60201c565b505f825190505f81148061012d5750600581115b15610164576040517f979c3fb900000000000000000000000000000000000000000000000000000000815260040160405180910390fd5b5f5f90505b8181101561028c575f84828151811061018557610184610ea8565b5b602002602001015190505f8190505f8151036101cd576040517f979c3fb900000000000000000000000000000000000000000000000000000000815260040160405180910390fd5b5f8180519060200120905060045f8281526020019081526020015f205f9054906101000a900460ff161561022d576040517f452f2a0300000000000000000000000000000000000000000000000000000000815260040160405180910390fd5b600160045f8381526020019081526020015f205f6101000a81548160ff021916908315150217905550600381908060018154018082558091505060019003905f5260205f20015f90919091909150555050508080600101915050610169565b50836002819055508160a081815250506102ac60056104da60201b60201c565b600b81905550505050505050611198565b5f33905090565b5f5f46905061a4ec81036102ef5773f134707a4c4a3a76b8410fc0294d620a7c34158191505061031b565b62aa044c810361031657730a782f7f9f8aac6e0bacaf3cd4aa292c3275c6f291505061031b565b5f9150505b90565b5f5f73ffffffffffffffffffffffffffffffffffffffff168273ffffffffffffffffffffffffffffffffffffffff160361035a575f9050610410565b5f61036b85846104fa60201b60201c565b90505f61037d856105eb60201b60201c565b90508373ffffffffffffffffffffffffffffffffffffffff1663561558fe6040518060400160405280858152602001848152506040518263ffffffff1660e01b81526004016103cc9190610f7a565b602060405180830381865afa1580156103e7573d5f5f3e3d5ffd5b505050506040513d601f19601f8201168201806040525081019061040b9190610f93565b925050505b9392505050565b5f60015f9054906101000a900473ffffffffffffffffffffffffffffffffffffffff1690508160015f6101000a81548173ffffffffffffffffffffffffffffffffffffffff021916908373ffffffffffffffffffffffffffffffffffffffff1602179055508173ffffffffffffffffffffffffffffffffffffffff168173ffffffffffffffffffffffffffffffffffffffff167f8be0079c531659141344cd1fd0a4f28419497f9722a3daafe3b4186f6b6457e060405160405180910390a35050565b5f816002015f836001015481526020019081526020015f20549050919050565b5f5f61050b846106f260201b60201c565b90505f61052e610523835f601f6109f060201b60201c565b6105eb60201b60201c565b90505f61055261054784601f602a6109f060201b60201c565b6105eb60201b60201c565b90508473ffffffffffffffffffffffffffffffffffffffff1663561558fe6040518060400160405280858152602001848152506040518263ffffffff1660e01b81526004016105a19190610f7a565b602060405180830381865afa1580156105bc573d5f5f3e3d5ffd5b505050506040513d601f19601f820116820180604052508101906105e09190610f93565b935050505092915050565b5f5f829050601f81511115610635576040517f08c379a000000000000000000000000000000000000000000000000000000000815260040161062c9061103e565b60405180910390fd5b5f5f90505f5f90505b82518110156106e757607f83828151811061065c5761065b610ea8565b5b602001015160f81c60f81b60f81c60ff1611156106ae576040517f08c379a00000000000000000000000000000000000000000000000000000000081526004016106a5906110a6565b60405180910390fd5b8281815181106106c1576106c0610ea8565b5b602001015160f81c60f81b60f81c60ff16600883901b179150808060010191505061063e565b508092505050919050565b60605f8273ffffffffffffffffffffffffffffffffffffffff165f1b90505f6040518060400160405280601081526020017f303132333435363738396162636465660000000000000000000000000000000081525090505f602a67ffffffffffffffff81111561076557610764610b65565b5b6040519080825280601f01601f1916602001820160405280156107975781602001600182028036833780820191505090505b5090507f3000000000000000000000000000000000000000000000000000000000000000815f815181106107ce576107cd610ea8565b5b60200101907effffffffffffffffffffffffffffffffffffffffffffffffffffffffffffff191690815f1a9053507f78000000000000000000000000000000000000000000000000000000000000008160018151811061083157610830610ea8565b5b60200101907effffffffffffffffffffffffffffffffffffffffffffffffffffffffffffff191690815f1a9053505f5f90505b60148110156109e45782600485600c8461087e91906110f1565b6020811061088f5761088e610ea8565b5b1a60f81b7effffffffffffffffffffffffffffffffffffffffffffffffffffffffffffff1916901c60f81c60ff16815181106108ce576108cd610ea8565b5b602001015160f81c60f81b826002836108e79190611124565b60026108f391906110f1565b8151811061090457610903610ea8565b5b60200101907effffffffffffffffffffffffffffffffffffffffffffffffffffffffffffff191690815f1a90535082600f60f81b85600c8461094691906110f1565b6020811061095757610956610ea8565b5b1a60f81b1660f81c60ff168151811061097357610972610ea8565b5b602001015160f81c60f81b8260028361098c9190611124565b600361099891906110f1565b815181106109a9576109a8610ea8565b5b60200101907effffffffffffffffffffffffffffffffffffffffffffffffffffffffffffff191690815f1a9053508080600101915050610864565b50809350505050919050565b60605f8490505f8484610a039190611165565b67ffffffffffffffff811115610a1c57610a1b610b65565b5b6040519080825280601f01601f191660200182016040528015610a4e5781602001600182028036833780820191505090505b5090505f8590505b84811015610ad557828181518110610a7157610a70610ea8565b5b602001015160f81c60f81b828783610a899190611165565b81518110610a9a57610a99610ea8565b5b60200101907effffffffffffffffffffffffffffffffffffffffffffffffffffffffffffff191690815f1a9053508080600101915050610a56565b5080925050509392505050565b5f604051905090565b5f5ffd5b5f5ffd5b5f73ffffffffffffffffffffffffffffffffffffffff82169050919050565b5f610b1c82610af3565b9050919050565b610b2c81610b12565b8114610b36575f5ffd5b50565b5f81519050610b4781610b23565b92915050565b5f5ffd5b5f5ffd5b5f601f19601f8301169050919050565b7f4e487b71000000000000000000000000000000000000000000000000000000005f52604160045260245ffd5b610b9b82610b55565b810181811067ffffffffffffffff82111715610bba57610bb9610b65565b5b80604052505050565b5f610bcc610ae2565b9050610bd88282610b92565b919050565b5f67ffffffffffffffff821115610bf757610bf6610b65565b5b610c0082610b55565b9050602081019050919050565b8281835e5f83830152505050565b5f610c2d610c2884610bdd565b610bc3565b905082815260208101848484011115610c4957610c48610b51565b5b610c54848285610c0d565b509392505050565b5f82601f830112610c7057610c6f610b4d565b5b8151610c80848260208601610c1b565b91505092915050565b5f819050919050565b610c9b81610c89565b8114610ca5575f5ffd5b50565b5f81519050610cb681610c92565b92915050565b5f67ffffffffffffffff821115610cd657610cd5610b65565b5b602082029050602081019050919050565b5f5ffd5b5f610cfd610cf884610cbc565b610bc3565b90508083825260208201905060208402830185811115610d2057610d1f610ce7565b5b835b81811015610d6757805167ffffffffffffffff811115610d4557610d44610b4d565b5b808601610d528982610c5c565b85526020850194505050602081019050610d22565b5050509392505050565b5f82601f830112610d8557610d84610b4d565b5b8151610d95848260208601610ceb565b91505092915050565b5f819050919050565b610db081610d9e565b8114610dba575f5ffd5b50565b5f81519050610dcb81610da7565b92915050565b5f5f5f5f5f60a08688031215610dea57610de9610aeb565b5b5f610df788828901610b39565b955050602086015167ffffffffffffffff811115610e1857610e17610aef565b5b610e2488828901610c5c565b9450506040610e3588828901610ca8565b935050606086015167ffffffffffffffff811115610e5657610e55610aef565b5b610e6288828901610d71565b9250506080610e7388828901610dbd565b9150509295509295909350565b610e8981610b12565b82525050565b5f602082019050610ea25f830184610e80565b92915050565b7f4e487b71000000000000000000000000000000000000000000000000000000005f52603260045260245ffd5b5f60029050919050565b5f81905092915050565b5f819050919050565b610efb81610d9e565b82525050565b5f610f0c8383610ef2565b60208301905092915050565b5f602082019050919050565b610f2d81610ed5565b610f378184610edf565b9250610f4282610ee9565b805f5b83811015610f72578151610f598782610f01565b9650610f6483610f18565b925050600181019050610f45565b505050505050565b5f604082019050610f8d5f830184610f24565b92915050565b5f60208284031215610fa857610fa7610aeb565b5b5f610fb584828501610dbd565b91505092915050565b5f82825260208201905092915050565b7f537472696e6720746f6f206c6f6e6720666f7220426967496e7420636f6e76655f8201527f7273696f6e000000000000000000000000000000000000000000000000000000602082015250565b5f611028602583610fbe565b915061103382610fce565b604082019050919050565b5f6020820190508181035f8301526110558161101c565b9050919050565b7f4e6f6e2d415343494920636861726163746572206465746563746564000000005f82015250565b5f611090601c83610fbe565b915061109b8261105c565b602082019050919050565b5f6020820190508181035f8301526110bd81611084565b9050919050565b7f4e487b71000000000000000000000000000000000000000000000000000000005f52601160045260245ffd5b5f6110fb82610d9e565b915061110683610d9e565b925082820190508082111561111e5761111d6110c4565b5b92915050565b5f61112e82610d9e565b915061113983610d9e565b925082820261114781610d9e565b9150828204841483151761115e5761115d6110c4565b5b5092915050565b5f61116f82610d9e565b915061117a83610d9e565b9250828203905081811115611192576111916110c4565b5b92915050565b60805160a0516122bf6111c75f395f81816103bb0152610a2101525f818161045d01526106c401526122bf5ff3fe608060405234801561000f575f5ffd5b506004361061011f575f3560e01c8063ada1b319116100ab578063d161802b1161006f578063d161802b146102e5578063dd4bc10114610301578063f2fde38b14610331578063f8d0562f1461034d578063fd6bc5471461037d5761011f565b8063ada1b3191461023f578063bb4437441461026f578063bfe829511461028d578063c1da8691146102ab578063c385abae146102c95761011f565b8063715018a6116100f2578063715018a6146101ad57806379f95ee9146101b75780638d1ddfb1146101e75780638d2d8d6a146102055780638da5cb5b146102215761011f565b806316a56c411461012357806355519d8714610141578063650e5fcf1461015f5780636e62d0a81461018f575b5f5ffd5b61012b6103ad565b604051610138919061111d565b60405180910390f35b6101496103b9565b604051610156919061111d565b60405180910390f35b61017960048036038101906101749190611171565b6103dd565b604051610186919061111d565b60405180910390f35b610197610418565b6040516101a4919061111d565b60405180910390f35b6101b5610420565b005b6101d160048036038101906101cc9190611171565b610433565b6040516101de91906111b6565b60405180910390f35b6101ef610450565b6040516101fc919061111d565b60405180910390f35b61021f600480360381019061021a919061130b565b61045b565b005b610229610506565b60405161023691906113c0565b60405180910390f35b6102596004803603810190610254919061140c565b61052e565b6040516102669190611487565b60405180910390f35b61027761053b565b6040516102849190611487565b60405180910390f35b610295610541565b6040516102a2919061111d565b60405180910390f35b6102b361054d565b6040516102c0919061111d565b60405180910390f35b6102e360048036038101906102de91906114a0565b610556565b005b6102ff60048036038101906102fa9190611528565b610568565b005b61031b600480360381019061031691906115d0565b610779565b6040516103289190611620565b60405180910390f35b61034b600480360381019061034691906115d0565b6107a0565b005b61036760048036038101906103629190611171565b610824565b6040516103749190611487565b60405180910390f35b610397600480360381019061039291906115d0565b610849565b6040516103a4919061111d565b60405180910390f35b5f600560010154905090565b7f000000000000000000000000000000000000000000000000000000000000000081565b5f5f82036103ed575f9050610413565b600b5482036103fe57439050610413565b60d55f8381526020019081526020015f205490505b919050565b5f5f54905090565b610428610868565b6104315f6108ef565b565b600a602052805f5260405f205f915054906101000a900460ff1681565b5f60055f0154905090565b7f000000000000000000000000000000000000000000000000000000000000000073ffffffffffffffffffffffffffffffffffffffff163373ffffffffffffffffffffffffffffffffffffffff16146104e0576040517f5c427cd900000000000000000000000000000000000000000000000000000000815260040160405180910390fd5b5f828060200190518101906104f59190611b75565b905061050181836109b2565b505050565b5f60015f9054906101000a900473ffffffffffffffffffffffffffffffffffffffff16905090565b5f60025490509392505050565b60025481565b5f600380549050905090565b5f600b54905090565b61055e610868565b8060028190555050565b60208484905010156105a6576040517fa512e2ff00000000000000000000000000000000000000000000000000000000815260040160405180910390fd5b60408282905010156105e4576040517fa512e2ff00000000000000000000000000000000000000000000000000000000815260040160405180910390fd5b5f843590505f83835f906020926105fd93929190611bc4565b906106089190611c14565b90505f848460209060409261061f93929190611bc4565b9061062a9190611c14565b90505f8585604090809261064093929190611bc4565b8080601f0160208091040260200160405190810160405280939291908181526020018383808284375f81840152601f19601f8201169050808301925050505050505090505f61069084848461052e565b90505f60025f60081b5f548c8c6040516020016106b1959493929190611d4b565b60405160208183030381529060405290507f000000000000000000000000000000000000000000000000000000000000000073ffffffffffffffffffffffffffffffffffffffff1663f7e83aee82848b8b60405160200161071493929190611db6565b6040516020818303038152906040526040518363ffffffff1660e01b8152600401610740929190611e31565b5f604051808303815f87803b158015610757575f5ffd5b505af1158015610769573d5f5f3e3d5ffd5b5050505050505050505050505050565b6009602052805f5260405f205f915054906101000a90046affffffffffffffffffffff1681565b6107a8610868565b5f73ffffffffffffffffffffffffffffffffffffffff168173ffffffffffffffffffffffffffffffffffffffff1603610818575f6040517f1e4fbdf700000000000000000000000000000000000000000000000000000000815260040161080f91906113c0565b60405180910390fd5b610821816108ef565b50565b5f6003828154811061083957610838611e66565b5b905f5260205f2001549050919050565b5f8173ffffffffffffffffffffffffffffffffffffffff169050919050565b610870610d75565b73ffffffffffffffffffffffffffffffffffffffff1661088e610506565b73ffffffffffffffffffffffffffffffffffffffff16146108ed576108b1610d75565b6040517f118cdaa70000000000000000000000000000000000000000000000000000000081526004016108e491906113c0565b60405180910390fd5b565b5f60015f9054906101000a900473ffffffffffffffffffffffffffffffffffffffff1690508160015f6101000a81548173ffffffffffffffffffffffffffffffffffffffff021916908373ffffffffffffffffffffffffffffffffffffffff1602179055508173ffffffffffffffffffffffffffffffffffffffff168173ffffffffffffffffffffffffffffffffffffffff167f8be0079c531659141344cd1fd0a4f28419497f9722a3daafe3b4186f6b6457e060405160405180910390a35050565b5f826020015190505f73ffffffffffffffffffffffffffffffffffffffff168173ffffffffffffffffffffffffffffffffffffffff1603610a1f576040517f9642e73700000000000000000000000000000000000000000000000000000000815260040160405180910390fd5b7f00000000000000000000000000000000000000000000000000000000000000008361016001511015610a7e576040517f6822bdfc00000000000000000000000000000000000000000000000000000000815260040160405180910390fd5b610a8b8360e00151610d7c565b610ac1576040517ff6ac14a700000000000000000000000000000000000000000000000000000000815260040160405180910390fd5b5f60095f8373ffffffffffffffffffffffffffffffffffffffff1673ffffffffffffffffffffffffffffffffffffffff1681526020019081526020015f205f9054906101000a90046affffffffffffffffffffff166affffffffffffffffffffff1614610b5a576040517f9642e73700000000000000000000000000000000000000000000000000000000815260040160405180910390fd5b600a5f846040015181526020019081526020015f205f9054906101000a900460ff1615610bb3576040517fcad2ae0200000000000000000000000000000000000000000000000000000000815260040160405180910390fd5b6001600a5f856040015181526020019081526020015f205f6101000a81548160ff0219169083151502179055505f8173ffffffffffffffffffffffffffffffffffffffff1690505f610c0482610da9565b90505f60095f8573ffffffffffffffffffffffffffffffffffffffff1673ffffffffffffffffffffffffffffffffffffffff1681526020019081526020015f205f9054906101000a90046affffffffffffffffffffff169050600160095f8673ffffffffffffffffffffffffffffffffffffffff1673ffffffffffffffffffffffffffffffffffffffff1681526020019081526020015f205f6101000a8154816affffffffffffffffffffff02191690836affffffffffffffffffffff1602179055508373ffffffffffffffffffffffffffffffffffffffff167fee82339564ef9f72eccdbb67b46a62198422524ab9c7e3fcbdd194fa1b46461b826001604051610d10929190611ed5565b60405180910390a285604001518473ffffffffffffffffffffffffffffffffffffffff167fabe5b1202d1f4ed2c1baccf335320ceae3abd90670864b741e80a2ef5671d8828585604051610d65929190611efc565b60405180910390a3505050505050565b5f33905090565b5f60045f838051906020012081526020019081526020015f205f9054906101000a900460ff169050919050565b5f610dbe826005610e9590919063ffffffff16565b90505f600b5490505f8114158015610dd65750818114155b15610e88575f4390505f600c60d45460648110610df657610df5611e66565b5b015490505f8114610e165760d55f8281526020019081526020015f205f90555b82600c60d45460648110610e2d57610e2c611e66565b5b018190555081607060d45460648110610e4957610e48611e66565b5b01819055508160d55f8581526020019081526020015f20819055506064600160d454610e759190611f50565b610e7f9190611fb0565b60d48190555050505b81600b8190555050919050565b5f7f30644e72e131a029b85045b68181585d2833e84879b9709143e1f593f00000018210610eef576040517fc380a82e00000000000000000000000000000000000000000000000000000000815260040160405180910390fd5b5f8203610f28576040517f29691be200000000000000000000000000000000000000000000000000000000815260040160405180910390fd5b610f3283836110e5565b15610f69576040517f258a195a00000000000000000000000000000000000000000000000000000000815260040160405180910390fd5b5f835f015490505f84600101549050600182610f859190611f50565b816002610f92919061210f565b1015610fa55780610fa290612159565b90505b8085600101819055505f8490505f5f90505b82811015611094576001808286901c16036110705773__$a2daaad8940c9006af3f1557205ebe532d$__63561558fe60405180604001604052808a6002015f8681526020019081526020015f20548152602001858152506040518263ffffffff1660e01b815260040161102a9190612245565b602060405180830381865af4158015611045573d5f5f3e3d5ffd5b505050506040513d601f19601f82011682018060405250810190611069919061225e565b9150611089565b81876002015f8381526020019081526020015f20819055505b806001019050610fb7565b508261109f90612159565b925082865f018190555080866002015f8481526020019081526020015f208190555082866003015f8781526020019081526020015f208190555080935050505092915050565b5f5f836003015f8481526020019081526020015f20541415905092915050565b5f819050919050565b61111781611105565b82525050565b5f6020820190506111305f83018461110e565b92915050565b5f604051905090565b5f5ffd5b5f5ffd5b61115081611105565b811461115a575f5ffd5b50565b5f8135905061116b81611147565b92915050565b5f602082840312156111865761118561113f565b5b5f6111938482850161115d565b91505092915050565b5f8115159050919050565b6111b08161119c565b82525050565b5f6020820190506111c95f8301846111a7565b92915050565b5f5ffd5b5f5ffd5b5f601f19601f8301169050919050565b7f4e487b71000000000000000000000000000000000000000000000000000000005f52604160045260245ffd5b61121d826111d7565b810181811067ffffffffffffffff8211171561123c5761123b6111e7565b5b80604052505050565b5f61124e611136565b905061125a8282611214565b919050565b5f67ffffffffffffffff821115611279576112786111e7565b5b611282826111d7565b9050602081019050919050565b828183375f83830152505050565b5f6112af6112aa8461125f565b611245565b9050828152602081018484840111156112cb576112ca6111d3565b5b6112d684828561128f565b509392505050565b5f82601f8301126112f2576112f16111cf565b5b813561130284826020860161129d565b91505092915050565b5f5f604083850312156113215761132061113f565b5b5f83013567ffffffffffffffff81111561133e5761133d611143565b5b61134a858286016112de565b925050602083013567ffffffffffffffff81111561136b5761136a611143565b5b611377858286016112de565b9150509250929050565b5f73ffffffffffffffffffffffffffffffffffffffff82169050919050565b5f6113aa82611381565b9050919050565b6113ba816113a0565b82525050565b5f6020820190506113d35f8301846113b1565b92915050565b5f819050919050565b6113eb816113d9565b81146113f5575f5ffd5b50565b5f81359050611406816113e2565b92915050565b5f5f5f606084860312156114235761142261113f565b5b5f611430868287016113f8565b9350506020611441868287016113f8565b925050604084013567ffffffffffffffff81111561146257611461611143565b5b61146e868287016112de565b9150509250925092565b611481816113d9565b82525050565b5f60208201905061149a5f830184611478565b92915050565b5f602082840312156114b5576114b461113f565b5b5f6114c2848285016113f8565b91505092915050565b5f5ffd5b5f5ffd5b5f5f83601f8401126114e8576114e76111cf565b5b8235905067ffffffffffffffff811115611505576115046114cb565b5b602083019150836001820283011115611521576115206114cf565b5b9250929050565b5f5f5f5f604085870312156115405761153f61113f565b5b5f85013567ffffffffffffffff81111561155d5761155c611143565b5b611569878288016114d3565b9450945050602085013567ffffffffffffffff81111561158c5761158b611143565b5b611598878288016114d3565b925092505092959194509250565b6115af816113a0565b81146115b9575f5ffd5b50565b5f813590506115ca816115a6565b92915050565b5f602082840312156115e5576115e461113f565b5b5f6115f2848285016115bc565b91505092915050565b5f6affffffffffffffffffffff82169050919050565b61161a816115fb565b82525050565b5f6020820190506116335f830184611611565b92915050565b5f5ffd5b5f5ffd5b5f8151905061164f816113e2565b92915050565b5f8151905061166381611147565b92915050565b5f67ffffffffffffffff821115611683576116826111e7565b5b602082029050919050565b5f6116a061169b84611669565b611245565b905080602084028301858111156116ba576116b96114cf565b5b835b818110156116e357806116cf8882611655565b8452602084019350506020810190506116bc565b5050509392505050565b5f82601f830112611701576117006111cf565b5b600461170e84828561168e565b91505092915050565b5f67ffffffffffffffff821115611731576117306111e7565b5b61173a826111d7565b9050602081019050919050565b8281835e5f83830152505050565b5f61176761176284611717565b611245565b905082815260208101848484011115611783576117826111d3565b5b61178e848285611747565b509392505050565b5f82601f8301126117aa576117a96111cf565b5b81516117ba848260208601611755565b91505092915050565b5f67ffffffffffffffff8211156117dd576117dc6111e7565b5b602082029050602081019050919050565b5f6118006117fb846117c3565b611245565b90508083825260208201905060208402830185811115611823576118226114cf565b5b835b8181101561186a57805167ffffffffffffffff811115611848576118476111cf565b5b8086016118558982611796565b85526020850194505050602081019050611825565b5050509392505050565b5f82601f830112611888576118876111cf565b5b81516118988482602086016117ee565b91505092915050565b5f67ffffffffffffffff8211156118bb576118ba6111e7565b5b602082029050919050565b6118cf8161119c565b81146118d9575f5ffd5b50565b5f815190506118ea816118c6565b92915050565b5f6119026118fd846118a1565b611245565b9050806020840283018581111561191c5761191b6114cf565b5b835b81811015611945578061193188826118dc565b84526020840193505060208101905061191e565b5050509392505050565b5f82601f830112611963576119626111cf565b5b60036119708482856118f0565b91505092915050565b5f610240828403121561198f5761198e611639565b5b61199a6101a0611245565b90505f6119a984828501611641565b5f8301525060206119bc84828501611655565b60208301525060406119d084828501611655565b60408301525060606119e4848285016116ed565b60608301525060e082015167ffffffffffffffff811115611a0857611a0761163d565b5b611a1484828501611796565b60808301525061010082015167ffffffffffffffff811115611a3957611a3861163d565b5b611a4584828501611874565b60a08301525061012082015167ffffffffffffffff811115611a6a57611a6961163d565b5b611a7684828501611796565b60c08301525061014082015167ffffffffffffffff811115611a9b57611a9a61163d565b5b611aa784828501611796565b60e08301525061016082015167ffffffffffffffff811115611acc57611acb61163d565b5b611ad884828501611796565b6101008301525061018082015167ffffffffffffffff811115611afe57611afd61163d565b5b611b0a84828501611796565b610120830152506101a082015167ffffffffffffffff811115611b3057611b2f61163d565b5b611b3c84828501611796565b610140830152506101c0611b5284828501611655565b610160830152506101e0611b688482850161194f565b6101808301525092915050565b5f60208284031215611b8a57611b8961113f565b5b5f82015167ffffffffffffffff811115611ba757611ba6611143565b5b611bb384828501611979565b91505092915050565b5f5ffd5b5f5ffd5b5f5f85851115611bd757611bd6611bbc565b5b83861115611be857611be7611bc0565b5b6001850283019150848603905094509492505050565b5f82905092915050565b5f82821b905092915050565b5f611c1f8383611bfe565b82611c2a81356113d9565b92506020821015611c6a57611c657fffffffffffffffffffffffffffffffffffffffffffffffffffffffffffffffff83602003600802611c08565b831692505b505092915050565b5f60ff82169050919050565b5f8160f81b9050919050565b5f611c9482611c7e565b9050919050565b611cac611ca782611c72565b611c8a565b82525050565b5f7fffffffffffffffffffffffffffffffffffffffffffffffffffffffffffffff0082169050919050565b5f819050919050565b611cf7611cf282611cb2565b611cdd565b82525050565b5f819050919050565b611d17611d1282611105565b611cfd565b82525050565b5f81905092915050565b5f611d328385611d1d565b9350611d3f83858461128f565b82840190509392505050565b5f611d568288611c9b565b600182019150611d668287611ce6565b601f82019150611d768286611d06565b602082019150611d87828486611d27565b91508190509695505050505050565b5f819050919050565b611db0611dab826113d9565b611d96565b82525050565b5f611dc18286611d9f565b602082019150611dd2828486611d27565b9150819050949350505050565b5f81519050919050565b5f82825260208201905092915050565b5f611e0382611ddf565b611e0d8185611de9565b9350611e1d818560208601611747565b611e26816111d7565b840191505092915050565b5f6040820190508181035f830152611e498185611df9565b90508181036020830152611e5d8184611df9565b90509392505050565b7f4e487b71000000000000000000000000000000000000000000000000000000005f52603260045260245ffd5b5f819050919050565b5f819050919050565b5f611ebf611eba611eb584611e93565b611e9c565b6115fb565b9050919050565b611ecf81611ea5565b82525050565b5f604082019050611ee85f830185611611565b611ef56020830184611ec6565b9392505050565b5f604082019050611f0f5f83018561110e565b611f1c602083018461110e565b9392505050565b7f4e487b71000000000000000000000000000000000000000000000000000000005f52601160045260245ffd5b5f611f5a82611105565b9150611f6583611105565b9250828201905080821115611f7d57611f7c611f23565b5b92915050565b7f4e487b71000000000000000000000000000000000000000000000000000000005f52601260045260245ffd5b5f611fba82611105565b9150611fc583611105565b925082611fd557611fd4611f83565b5b828206905092915050565b5f8160011c9050919050565b5f5f8291508390505b60018511156120355780860481111561201157612010611f23565b5b60018516156120205780820291505b808102905061202e85611fe0565b9450611ff5565b94509492505050565b5f8261204d5760019050612108565b8161205a575f9050612108565b8160018114612070576002811461207a576120a9565b6001915050612108565b60ff84111561208c5761208b611f23565b5b8360020a9150848211156120a3576120a2611f23565b5b50612108565b5060208310610133831016604e8410600b84101617156120de5782820a9050838111156120d9576120d8611f23565b5b612108565b6120eb8484846001611fec565b9250905081840481111561210257612101611f23565b5b81810290505b9392505050565b5f61211982611105565b915061212483611105565b92506121517fffffffffffffffffffffffffffffffffffffffffffffffffffffffffffffffff848461203e565b905092915050565b5f61216382611105565b91507fffffffffffffffffffffffffffffffffffffffffffffffffffffffffffffffff820361219557612194611f23565b5b600182019050919050565b5f60029050919050565b5f81905092915050565b5f819050919050565b6121c681611105565b82525050565b5f6121d783836121bd565b60208301905092915050565b5f602082019050919050565b6121f8816121a0565b61220281846121aa565b925061220d826121b4565b805f5b8381101561223d57815161222487826121cc565b965061222f836121e3565b925050600181019050612210565b505050505050565b5f6040820190506122585f8301846121ef565b92915050565b5f602082840312156122735761227261113f565b5b5f61228084828501611655565b9150509291505056fea2646970667358221220d7ce29237be8c3625fcb86f7c052ae7fadbe56c5c707b8bafd8bc4abf3a6c32664736f6c634300081c0033","linkReferences":{"lib/poseidon-solidity/contracts/PoseidonT3.sol":{"PoseidonT3":[{"start":8597,"length":20}]}}},"methodIdentifiers":{"getCensusRoot()":"c1da8691","getConfigId(bytes32,bytes32,bytes)":"ada1b319","getRootBlockNumber(uint256)":"650e5fcf","leafOf(address)":"fd6bc547","minAge()":"55519d87","nullifierUsed(uint256)":"79f95ee9","onVerificationSuccess(bytes,bytes)":"8d2d8d6a","owner()":"8da5cb5b","renounceOwnership()":"715018a6","scope()":"6e62d0a8","setConfigId(bytes32)":"c385abae","targetNationalityHashAt(uint256)":"f8d0562f","targetNationalityHashesLength()":"bfe82951","transferOwnership(address)":"f2fde38b","treeDepth()":"16a56c41","treeSize()":"8d1ddfb1","verificationConfigId()":"bb443744","verifySelfProof(bytes,bytes)":"d161802b","weightOf(address)":"dd4bc101"},"id":38}