{"abi":[{"type":"constructor","inputs":[{"name":"identityVerificationHubAddress","type":"address","internalType":"address"},{"name":"scopeSeed","type":"string","internalType":"string"},{"name":"configId","type":"bytes32","internalType":"bytes32"},{"name":"targetNationalityAlpha3","type":"string","internalType":"string"},{"name":"minAge_","type":"uint256","internalType":"uint256"}],"stateMutability":"nonpayable"},{"type":"function","name":"getCensusRoot","inputs":[],"outputs":[{"name":"root","type":"uint256","internalType":"uint256"}],"stateMutability":"view"},{"type":"function","name":"getConfigId","inputs":[{"name":"","type":"bytes32","internalType":"bytes32"},{"name":"","type":"bytes32","internalType":"bytes32"},{"name":"","type":"bytes","internalType":"bytes"}],"outputs":[{"name":"","type":"bytes32","internalType":"bytes32"}],"stateMutability":"view"},{"type":"function","name":"getRootBlockNumber","inputs":[{"name":"root","type":"uint256","internalType":"uint256"}],"outputs":[{"name":"blockNumber","type":"uint256","internalType":"uint256"}],"stateMutability":"view"},{"type":"function","name":"leafOf","inputs":[{"name":"user","type":"address","internalType":"address"}],"outputs":[{"name":"","type":"uint256","internalType":"uint256"}],"stateMutability":"pure"},{"type":"function","name":"minAge","inputs":[],"outputs":[{"name":"","type":"uint256","internalType":"uint256"}],"stateMutability":"view"},{"type":"function","name":"nullifierUsed","inputs":[{"name":"nullifier","type":"uint256","internalType":"uint256"}],"outputs":[{"name":"used","type":"bool","internalType":"bool"}],"stateMutability":"view"},{"type":"function","name":"onVerificationSuccess","inputs":[{"name":"output","type":"bytes","internalType":"bytes"},{"name":"userData","type":"bytes","internalType":"bytes"}],"outputs":[],"stateMutability":"nonpayable"},{"type":"function","name":"owner","inputs":[],"outputs":[{"name":"","type":"address","internalType":"address"}],"stateMutability":"view"},{"type":"function","name":"renounceOwnership","inputs":[],"outputs":[],"stateMutability":"nonpayable"},{"type":"function","name":"scope","inputs":[],"outputs":[{"name":"","type":"uint256","internalType":"uint256"}],"stateMutability":"view"},{"type":"function","name":"setConfigId","inputs":[{"name":"configId","type":"bytes32","internalType":"bytes32"}],"outputs":[],"stateMutability":"nonpayable"},{"type":"function","name":"targetNationalityHash","inputs":[],"outputs":[{"name":"","type":"bytes32","internalType":"bytes32"}],"stateMutability":"view"},{"type":"function","name":"transferOwnership","inputs":[{"name":"newOwner","type":"address","internalType":"address"}],"outputs":[],"stateMutability":"nonpayable"},{"type":"function","name":"treeDepth","inputs":[],"outputs":[{"name":"","type":"uint256","internalType":"uint256"}],"stateMutability":"view"},{"type":"function","name":"treeSize","inputs":[],"outputs":[{"name":"","type":"uint256","internalType":"uint256"}],"stateMutability":"view"},{"type":"function","name":"verificationConfigId","inputs":[],"outputs":[{"name":"","type":"bytes32","internalType":"bytes32"}],"stateMutability":"view"},{"type":"function","name":"verifySelfProof","inputs":[{"name":"proofPayload","type":"bytes","internalType":"bytes"},{"name":"userContextData","type":"bytes","internalType":"bytes"}],"outputs":[],"stateMutability":"nonpayable"},{"type":"function","name":"weightOf","inputs":[{"name":"","type":"address","internalType":"address"}],"outputs":[{"name":"","type":"uint88","internalType":"uint88"}],"stateMutability":"view"},{"type":"event","name":"OwnershipTransferred","inputs":[{"name":"previousOwner","type":"address","indexed":true,"internalType":"address"},{"name":"newOwner","type":"address","indexed":true,"internalType":"address"}],"anonymous":false},{"type":"event","name":"Registered","inputs":[{"name":"user","type":"address","indexed":true,"internalType":"address"},{"name":"nullifier","type":"uint256","indexed":true,"internalType":"uint256"},{"name":"leaf","type":"uint256","indexed":false,"internalType":"uint256"},{"name":"newRoot","type":"uint256","indexed":false,"internalType":"uint256"}],"anonymous":false},{"type":"event","name":"WeightChanged","inputs":[{"name":"account","type":"address","indexed":true,"internalType":"address"},{"name":"previousWeight","type":"uint88","indexed":false,"internalType":"uint88"},{"name":"newWeight","type":"uint88","indexed":false,"internalType":"uint88"}],"anonymous":false},{"type":"error","name":"AlreadyRegisteredAddress","inputs":[]},{"type":"error","name":"InvalidDataFormat","inputs":[]},{"type":"error","name":"LeafAlreadyExists","inputs":[]},{"type":"error","name":"LeafCannotBeZero","inputs":[]},{"type":"error","name":"LeafGreaterThanSnarkScalarField","inputs":[]},{"type":"error","name":"NotAdult","inputs":[]},{"type":"error","name":"NullifierAlreadyUsed","inputs":[]},{"type":"error","name":"OwnableInvalidOwner","inputs":[{"name":"owner","type":"address","internalType":"address"}]},{"type":"error","name":"OwnableUnauthorizedAccount","inputs":[{"name":"account","type":"address","internalType":"address"}]},{"type":"error","name":"UnauthorizedCaller","inputs":[]},{"type":"error","name":"WrongNationality","inputs":[]}],"bytecode":{"object":"0x60e060405234801561000f575f5ffd5b506040516131fb3803806131fb83398181016040528101906100319190610b8a565b61003f61015860201b60201c565b85858173ffffffffffffffffffffffffffffffffffffffff1660808173ffffffffffffffffffffffffffffffffffffffff1681525050610093308261008861015f60201b60201c565b6101b960201b60201c565b5f8190555050505f73ffffffffffffffffffffffffffffffffffffffff168173ffffffffffffffffffffffffffffffffffffffff160361010a575f6040517f1e4fbdf70000000000000000000000000000000000000000000000000000000081526004016101019190610c48565b60405180910390fd5b610119816102b260201b60201c565b5082600281905550818051906020012060a081815250508060c08181525050610148600361037560201b60201c565b6009819055505050505050610f51565b5f33905090565b5f5f46905061a4ec810361018a5773f134707a4c4a3a76b8410fc0294d620a7c3415819150506101b6565b62aa044c81036101b157730a782f7f9f8aac6e0bacaf3cd4aa292c3275c6f29150506101b6565b5f9150505b90565b5f5f73ffffffffffffffffffffffffffffffffffffffff168273ffffffffffffffffffffffffffffffffffffffff16036101f5575f90506102ab565b5f610206858461039560201b60201c565b90505f6102188561048660201b60201c565b90508373ffffffffffffffffffffffffffffffffffffffff1663561558fe6040518060400160405280858152602001848152506040518263ffffffff1660e01b81526004016102679190610d06565b602060405180830381865afa158015610282573d5f5f3e3d5ffd5b505050506040513d601f19601f820116820180604052508101906102a69190610d1f565b925050505b9392505050565b5f60015f9054906101000a900473ffffffffffffffffffffffffffffffffffffffff1690508160015f6101000a81548173ffffffffffffffffffffffffffffffffffffffff021916908373ffffffffffffffffffffffffffffffffffffffff1602179055508173ffffffffffffffffffffffffffffffffffffffff168173ffffffffffffffffffffffffffffffffffffffff167f8be0079c531659141344cd1fd0a4f28419497f9722a3daafe3b4186f6b6457e060405160405180910390a35050565b5f816002015f836001015481526020019081526020015f20549050919050565b5f5f6103a68461058d60201b60201c565b90505f6103c96103be835f601f61088b60201b60201c565b61048660201b60201c565b90505f6103ed6103e284601f602a61088b60201b60201c565b61048660201b60201c565b90508473ffffffffffffffffffffffffffffffffffffffff1663561558fe6040518060400160405280858152602001848152506040518263ffffffff1660e01b815260040161043c9190610d06565b602060405180830381865afa158015610457573d5f5f3e3d5ffd5b505050506040513d601f19601f8201168201806040525081019061047b9190610d1f565b935050505092915050565b5f5f829050601f815111156104d0576040517f08c379a00000000000000000000000000000000000000000000000000000000081526004016104c790610dca565b60405180910390fd5b5f5f90505f5f90505b825181101561058257607f8382815181106104f7576104f6610de8565b5b602001015160f81c60f81b60f81c60ff161115610549576040517f08c379a000000000000000000000000000000000000000000000000000000000815260040161054090610e5f565b60405180910390fd5b82818151811061055c5761055b610de8565b5b602001015160f81c60f81b60f81c60ff16600883901b17915080806001019150506104d9565b508092505050919050565b60605f8273ffffffffffffffffffffffffffffffffffffffff165f1b90505f6040518060400160405280601081526020017f303132333435363738396162636465660000000000000000000000000000000081525090505f602a67ffffffffffffffff811115610600576105ff610a00565b5b6040519080825280601f01601f1916602001820160405280156106325781602001600182028036833780820191505090505b5090507f3000000000000000000000000000000000000000000000000000000000000000815f8151811061066957610668610de8565b5b60200101907effffffffffffffffffffffffffffffffffffffffffffffffffffffffffffff191690815f1a9053507f7800000000000000000000000000000000000000000000000000000000000000816001815181106106cc576106cb610de8565b5b60200101907effffffffffffffffffffffffffffffffffffffffffffffffffffffffffffff191690815f1a9053505f5f90505b601481101561087f5782600485600c846107199190610eaa565b6020811061072a57610729610de8565b5b1a60f81b7effffffffffffffffffffffffffffffffffffffffffffffffffffffffffffff1916901c60f81c60ff168151811061076957610768610de8565b5b602001015160f81c60f81b826002836107829190610edd565b600261078e9190610eaa565b8151811061079f5761079e610de8565b5b60200101907effffffffffffffffffffffffffffffffffffffffffffffffffffffffffffff191690815f1a90535082600f60f81b85600c846107e19190610eaa565b602081106107f2576107f1610de8565b5b1a60f81b1660f81c60ff168151811061080e5761080d610de8565b5b602001015160f81c60f81b826002836108279190610edd565b60036108339190610eaa565b8151811061084457610843610de8565b5b60200101907effffffffffffffffffffffffffffffffffffffffffffffffffffffffffffff191690815f1a90535080806001019150506106ff565b50809350505050919050565b60605f8490505f848461089e9190610f1e565b67ffffffffffffffff8111156108b7576108b6610a00565b5b6040519080825280601f01601f1916602001820160405280156108e95781602001600182028036833780820191505090505b5090505f8590505b848110156109705782818151811061090c5761090b610de8565b5b602001015160f81c60f81b8287836109249190610f1e565b8151811061093557610934610de8565b5b60200101907effffffffffffffffffffffffffffffffffffffffffffffffffffffffffffff191690815f1a90535080806001019150506108f1565b5080925050509392505050565b5f604051905090565b5f5ffd5b5f5ffd5b5f73ffffffffffffffffffffffffffffffffffffffff82169050919050565b5f6109b78261098e565b9050919050565b6109c7816109ad565b81146109d1575f5ffd5b50565b5f815190506109e2816109be565b92915050565b5f5ffd5b5f5ffd5b5f601f19601f8301169050919050565b7f4e487b71000000000000000000000000000000000000000000000000000000005f52604160045260245ffd5b610a36826109f0565b810181811067ffffffffffffffff82111715610a5557610a54610a00565b5b80604052505050565b5f610a6761097d565b9050610a738282610a2d565b919050565b5f67ffffffffffffffff821115610a9257610a91610a00565b5b610a9b826109f0565b9050602081019050919050565b8281835e5f83830152505050565b5f610ac8610ac384610a78565b610a5e565b905082815260208101848484011115610ae457610ae36109ec565b5b610aef848285610aa8565b509392505050565b5f82601f830112610b0b57610b0a6109e8565b5b8151610b1b848260208601610ab6565b91505092915050565b5f819050919050565b610b3681610b24565b8114610b40575f5ffd5b50565b5f81519050610b5181610b2d565b92915050565b5f819050919050565b610b6981610b57565b8114610b73575f5ffd5b50565b5f81519050610b8481610b60565b92915050565b5f5f5f5f5f60a08688031215610ba357610ba2610986565b5b5f610bb0888289016109d4565b955050602086015167ffffffffffffffff811115610bd157610bd061098a565b5b610bdd88828901610af7565b9450506040610bee88828901610b43565b935050606086015167ffffffffffffffff811115610c0f57610c0e61098a565b5b610c1b88828901610af7565b9250506080610c2c88828901610b76565b9150509295509295909350565b610c42816109ad565b82525050565b5f602082019050610c5b5f830184610c39565b92915050565b5f60029050919050565b5f81905092915050565b5f819050919050565b610c8781610b57565b82525050565b5f610c988383610c7e565b60208301905092915050565b5f602082019050919050565b610cb981610c61565b610cc38184610c6b565b9250610cce82610c75565b805f5b83811015610cfe578151610ce58782610c8d565b9650610cf083610ca4565b925050600181019050610cd1565b505050505050565b5f604082019050610d195f830184610cb0565b92915050565b5f60208284031215610d3457610d33610986565b5b5f610d4184828501610b76565b91505092915050565b5f82825260208201905092915050565b7f537472696e6720746f6f206c6f6e6720666f7220426967496e7420636f6e76655f8201527f7273696f6e000000000000000000000000000000000000000000000000000000602082015250565b5f610db4602583610d4a565b9150610dbf82610d5a565b604082019050919050565b5f6020820190508181035f830152610de181610da8565b9050919050565b7f4e487b71000000000000000000000000000000000000000000000000000000005f52603260045260245ffd5b7f4e6f6e2d415343494920636861726163746572206465746563746564000000005f82015250565b5f610e49601c83610d4a565b9150610e5482610e15565b602082019050919050565b5f6020820190508181035f830152610e7681610e3d565b9050919050565b7f4e487b71000000000000000000000000000000000000000000000000000000005f52601160045260245ffd5b5f610eb482610b57565b9150610ebf83610b57565b9250828201905080821115610ed757610ed6610e7d565b5b92915050565b5f610ee782610b57565b9150610ef283610b57565b9250828202610f0081610b57565b91508282048414831517610f1757610f16610e7d565b5b5092915050565b5f610f2882610b57565b9150610f3383610b57565b9250828203905081811115610f4b57610f4a610e7d565b5b92915050565b60805160a05160c05161226b610f905f395f818161038001526109d901525f81816104f50152610a3801525f818161042201526106a1015261226b5ff3fe608060405234801561000f575f5ffd5b5060043610610114575f3560e01c80639c6d7090116100a0578063c385abae1161006f578063c385abae146102be578063d161802b146102da578063dd4bc101146102f6578063f2fde38b14610326578063fd6bc5471461034257610114565b80639c6d709014610234578063ada1b31914610252578063bb44374414610282578063c1da8691146102a057610114565b8063715018a6116100e7578063715018a6146101a257806379f95ee9146101ac5780638d1ddfb1146101dc5780638d2d8d6a146101fa5780638da5cb5b1461021657610114565b806316a56c411461011857806355519d8714610136578063650e5fcf146101545780636e62d0a814610184575b5f5ffd5b610120610372565b60405161012d91906110c9565b60405180910390f35b61013e61037e565b60405161014b91906110c9565b60405180910390f35b61016e6004803603810190610169919061111d565b6103a2565b60405161017b91906110c9565b60405180910390f35b61018c6103dd565b60405161019991906110c9565b60405180910390f35b6101aa6103e5565b005b6101c660048036038101906101c1919061111d565b6103f8565b6040516101d39190611162565b60405180910390f35b6101e4610415565b6040516101f191906110c9565b60405180910390f35b610214600480360381019061020f91906112b7565b610420565b005b61021e6104cb565b60405161022b919061136c565b60405180910390f35b61023c6104f3565b604051610249919061139d565b60405180910390f35b61026c600480360381019061026791906113e0565b610517565b604051610279919061139d565b60405180910390f35b61028a610524565b604051610297919061139d565b60405180910390f35b6102a861052a565b6040516102b591906110c9565b60405180910390f35b6102d860048036038101906102d3919061144c565b610533565b005b6102f460048036038101906102ef91906114d4565b610545565b005b610310600480360381019061030b919061157c565b610756565b60405161031d91906115cc565b60405180910390f35b610340600480360381019061033b919061157c565b61077d565b005b61035c6004803603810190610357919061157c565b610801565b60405161036991906110c9565b60405180910390f35b5f600360010154905090565b7f000000000000000000000000000000000000000000000000000000000000000081565b5f5f82036103b2575f90506103d8565b60095482036103c3574390506103d8565b60d35f8381526020019081526020015f205490505b919050565b5f5f54905090565b6103ed610820565b6103f65f6108a7565b565b6008602052805f5260405f205f915054906101000a900460ff1681565b5f60035f0154905090565b7f000000000000000000000000000000000000000000000000000000000000000073ffffffffffffffffffffffffffffffffffffffff163373ffffffffffffffffffffffffffffffffffffffff16146104a5576040517f5c427cd900000000000000000000000000000000000000000000000000000000815260040160405180910390fd5b5f828060200190518101906104ba9190611b21565b90506104c6818361096a565b505050565b5f60015f9054906101000a900473ffffffffffffffffffffffffffffffffffffffff16905090565b7f000000000000000000000000000000000000000000000000000000000000000081565b5f60025490509392505050565b60025481565b5f600954905090565b61053b610820565b8060028190555050565b6020848490501015610583576040517fa512e2ff00000000000000000000000000000000000000000000000000000000815260040160405180910390fd5b60408282905010156105c1576040517fa512e2ff00000000000000000000000000000000000000000000000000000000815260040160405180910390fd5b5f843590505f83835f906020926105da93929190611b70565b906105e59190611bc0565b90505f84846020906040926105fc93929190611b70565b906106079190611bc0565b90505f8585604090809261061d93929190611b70565b8080601f0160208091040260200160405190810160405280939291908181526020018383808284375f81840152601f19601f8201169050808301925050505050505090505f61066d848484610517565b90505f60025f60081b5f548c8c60405160200161068e959493929190611cf7565b60405160208183030381529060405290507f000000000000000000000000000000000000000000000000000000000000000073ffffffffffffffffffffffffffffffffffffffff1663f7e83aee82848b8b6040516020016106f193929190611d62565b6040516020818303038152906040526040518363ffffffff1660e01b815260040161071d929190611ddd565b5f604051808303815f87803b158015610734575f5ffd5b505af1158015610746573d5f5f3e3d5ffd5b5050505050505050505050505050565b6007602052805f5260405f205f915054906101000a90046affffffffffffffffffffff1681565b610785610820565b5f73ffffffffffffffffffffffffffffffffffffffff168173ffffffffffffffffffffffffffffffffffffffff16036107f5575f6040517f1e4fbdf70000000000000000000000000000000000000000000000000000000081526004016107ec919061136c565b60405180910390fd5b6107fe816108a7565b50565b5f8173ffffffffffffffffffffffffffffffffffffffff169050919050565b610828610d4e565b73ffffffffffffffffffffffffffffffffffffffff166108466104cb565b73ffffffffffffffffffffffffffffffffffffffff16146108a557610869610d4e565b6040517f118cdaa700000000000000000000000000000000000000000000000000000000815260040161089c919061136c565b60405180910390fd5b565b5f60015f9054906101000a900473ffffffffffffffffffffffffffffffffffffffff1690508160015f6101000a81548173ffffffffffffffffffffffffffffffffffffffff021916908373ffffffffffffffffffffffffffffffffffffffff1602179055508173ffffffffffffffffffffffffffffffffffffffff168173ffffffffffffffffffffffffffffffffffffffff167f8be0079c531659141344cd1fd0a4f28419497f9722a3daafe3b4186f6b6457e060405160405180910390a35050565b5f826020015190505f73ffffffffffffffffffffffffffffffffffffffff168173ffffffffffffffffffffffffffffffffffffffff16036109d7576040517f9642e73700000000000000000000000000000000000000000000000000000000815260040160405180910390fd5b7f00000000000000000000000000000000000000000000000000000000000000008361016001511015610a36576040517f6822bdfc00000000000000000000000000000000000000000000000000000000815260040160405180910390fd5b7f00000000000000000000000000000000000000000000000000000000000000008360e001518051906020012014610a9a576040517ff6ac14a700000000000000000000000000000000000000000000000000000000815260040160405180910390fd5b5f60075f8373ffffffffffffffffffffffffffffffffffffffff1673ffffffffffffffffffffffffffffffffffffffff1681526020019081526020015f205f9054906101000a90046affffffffffffffffffffff166affffffffffffffffffffff1614610b33576040517f9642e73700000000000000000000000000000000000000000000000000000000815260040160405180910390fd5b60085f846040015181526020019081526020015f205f9054906101000a900460ff1615610b8c576040517fcad2ae0200000000000000000000000000000000000000000000000000000000815260040160405180910390fd5b600160085f856040015181526020019081526020015f205f6101000a81548160ff0219169083151502179055505f8173ffffffffffffffffffffffffffffffffffffffff1690505f610bdd82610d55565b90505f60075f8573ffffffffffffffffffffffffffffffffffffffff1673ffffffffffffffffffffffffffffffffffffffff1681526020019081526020015f205f9054906101000a90046affffffffffffffffffffff169050600160075f8673ffffffffffffffffffffffffffffffffffffffff1673ffffffffffffffffffffffffffffffffffffffff1681526020019081526020015f205f6101000a8154816affffffffffffffffffffff02191690836affffffffffffffffffffff1602179055508373ffffffffffffffffffffffffffffffffffffffff167fee82339564ef9f72eccdbb67b46a62198422524ab9c7e3fcbdd194fa1b46461b826001604051610ce9929190611e54565b60405180910390a285604001518473ffffffffffffffffffffffffffffffffffffffff167fabe5b1202d1f4ed2c1baccf335320ceae3abd90670864b741e80a2ef5671d8828585604051610d3e929190611e7b565b60405180910390a3505050505050565b5f33905090565b5f610d6a826003610e4190919063ffffffff16565b90505f60095490505f8114158015610d825750818114155b15610e34575f4390505f600a60d25460648110610da257610da1611ea2565b5b015490505f8114610dc25760d35f8281526020019081526020015f205f90555b82600a60d25460648110610dd957610dd8611ea2565b5b018190555081606e60d25460648110610df557610df4611ea2565b5b01819055508160d35f8581526020019081526020015f20819055506064600160d254610e219190611efc565b610e2b9190611f5c565b60d28190555050505b8160098190555050919050565b5f7f30644e72e131a029b85045b68181585d2833e84879b9709143e1f593f00000018210610e9b576040517fc380a82e00000000000000000000000000000000000000000000000000000000815260040160405180910390fd5b5f8203610ed4576040517f29691be200000000000000000000000000000000000000000000000000000000815260040160405180910390fd5b610ede8383611091565b15610f15576040517f258a195a00000000000000000000000000000000000000000000000000000000815260040160405180910390fd5b5f835f015490505f84600101549050600182610f319190611efc565b816002610f3e91906120bb565b1015610f515780610f4e90612105565b90505b8085600101819055505f8490505f5f90505b82811015611040576001808286901c160361101c5773f134707a4c4a3a76b8410fc0294d620a7c34158163561558fe60405180604001604052808a6002015f8681526020019081526020015f20548152602001858152506040518263ffffffff1660e01b8152600401610fd691906121f1565b602060405180830381865af4158015610ff1573d5f5f3e3d5ffd5b505050506040513d601f19601f82011682018060405250810190611015919061220a565b9150611035565b81876002015f8381526020019081526020015f20819055505b806001019050610f63565b508261104b90612105565b925082865f018190555080866002015f8481526020019081526020015f208190555082866003015f8781526020019081526020015f208190555080935050505092915050565b5f5f836003015f8481526020019081526020015f20541415905092915050565b5f819050919050565b6110c3816110b1565b82525050565b5f6020820190506110dc5f8301846110ba565b92915050565b5f604051905090565b5f5ffd5b5f5ffd5b6110fc816110b1565b8114611106575f5ffd5b50565b5f81359050611117816110f3565b92915050565b5f60208284031215611132576111316110eb565b5b5f61113f84828501611109565b91505092915050565b5f8115159050919050565b61115c81611148565b82525050565b5f6020820190506111755f830184611153565b92915050565b5f5ffd5b5f5ffd5b5f601f19601f8301169050919050565b7f4e487b71000000000000000000000000000000000000000000000000000000005f52604160045260245ffd5b6111c982611183565b810181811067ffffffffffffffff821117156111e8576111e7611193565b5b80604052505050565b5f6111fa6110e2565b905061120682826111c0565b919050565b5f67ffffffffffffffff82111561122557611224611193565b5b61122e82611183565b9050602081019050919050565b828183375f83830152505050565b5f61125b6112568461120b565b6111f1565b9050828152602081018484840111156112775761127661117f565b5b61128284828561123b565b509392505050565b5f82601f83011261129e5761129d61117b565b5b81356112ae848260208601611249565b91505092915050565b5f5f604083850312156112cd576112cc6110eb565b5b5f83013567ffffffffffffffff8111156112ea576112e96110ef565b5b6112f68582860161128a565b925050602083013567ffffffffffffffff811115611317576113166110ef565b5b6113238582860161128a565b9150509250929050565b5f73ffffffffffffffffffffffffffffffffffffffff82169050919050565b5f6113568261132d565b9050919050565b6113668161134c565b82525050565b5f60208201905061137f5f83018461135d565b92915050565b5f819050919050565b61139781611385565b82525050565b5f6020820190506113b05f83018461138e565b92915050565b6113bf81611385565b81146113c9575f5ffd5b50565b5f813590506113da816113b6565b92915050565b5f5f5f606084860312156113f7576113f66110eb565b5b5f611404868287016113cc565b9350506020611415868287016113cc565b925050604084013567ffffffffffffffff811115611436576114356110ef565b5b6114428682870161128a565b9150509250925092565b5f60208284031215611461576114606110eb565b5b5f61146e848285016113cc565b91505092915050565b5f5ffd5b5f5ffd5b5f5f83601f8401126114945761149361117b565b5b8235905067ffffffffffffffff8111156114b1576114b0611477565b5b6020830191508360018202830111156114cd576114cc61147b565b5b9250929050565b5f5f5f5f604085870312156114ec576114eb6110eb565b5b5f85013567ffffffffffffffff811115611509576115086110ef565b5b6115158782880161147f565b9450945050602085013567ffffffffffffffff811115611538576115376110ef565b5b6115448782880161147f565b925092505092959194509250565b61155b8161134c565b8114611565575f5ffd5b50565b5f8135905061157681611552565b92915050565b5f60208284031215611591576115906110eb565b5b5f61159e84828501611568565b91505092915050565b5f6affffffffffffffffffffff82169050919050565b6115c6816115a7565b82525050565b5f6020820190506115df5f8301846115bd565b92915050565b5f5ffd5b5f5ffd5b5f815190506115fb816113b6565b92915050565b5f8151905061160f816110f3565b92915050565b5f67ffffffffffffffff82111561162f5761162e611193565b5b602082029050919050565b5f61164c61164784611615565b6111f1565b905080602084028301858111156116665761166561147b565b5b835b8181101561168f578061167b8882611601565b845260208401935050602081019050611668565b5050509392505050565b5f82601f8301126116ad576116ac61117b565b5b60046116ba84828561163a565b91505092915050565b5f67ffffffffffffffff8211156116dd576116dc611193565b5b6116e682611183565b9050602081019050919050565b8281835e5f83830152505050565b5f61171361170e846116c3565b6111f1565b90508281526020810184848401111561172f5761172e61117f565b5b61173a8482856116f3565b509392505050565b5f82601f8301126117565761175561117b565b5b8151611766848260208601611701565b91505092915050565b5f67ffffffffffffffff82111561178957611788611193565b5b602082029050602081019050919050565b5f6117ac6117a78461176f565b6111f1565b905080838252602082019050602084028301858111156117cf576117ce61147b565b5b835b8181101561181657805167ffffffffffffffff8111156117f4576117f361117b565b5b8086016118018982611742565b855260208501945050506020810190506117d1565b5050509392505050565b5f82601f8301126118345761183361117b565b5b815161184484826020860161179a565b91505092915050565b5f67ffffffffffffffff82111561186757611866611193565b5b602082029050919050565b61187b81611148565b8114611885575f5ffd5b50565b5f8151905061189681611872565b92915050565b5f6118ae6118a98461184d565b6111f1565b905080602084028301858111156118c8576118c761147b565b5b835b818110156118f157806118dd8882611888565b8452602084019350506020810190506118ca565b5050509392505050565b5f82601f83011261190f5761190e61117b565b5b600361191c84828561189c565b91505092915050565b5f610240828403121561193b5761193a6115e5565b5b6119466101a06111f1565b90505f611955848285016115ed565b5f83015250602061196884828501611601565b602083015250604061197c84828501611601565b604083015250606061199084828501611699565b60608301525060e082015167ffffffffffffffff8111156119b4576119b36115e9565b5b6119c084828501611742565b60808301525061010082015167ffffffffffffffff8111156119e5576119e46115e9565b5b6119f184828501611820565b60a08301525061012082015167ffffffffffffffff811115611a1657611a156115e9565b5b611a2284828501611742565b60c08301525061014082015167ffffffffffffffff811115611a4757611a466115e9565b5b611a5384828501611742565b60e08301525061016082015167ffffffffffffffff811115611a7857611a776115e9565b5b611a8484828501611742565b6101008301525061018082015167ffffffffffffffff811115611aaa57611aa96115e9565b5b611ab684828501611742565b610120830152506101a082015167ffffffffffffffff811115611adc57611adb6115e9565b5b611ae884828501611742565b610140830152506101c0611afe84828501611601565b610160830152506101e0611b14848285016118fb565b6101808301525092915050565b5f60208284031215611b3657611b356110eb565b5b5f82015167ffffffffffffffff811115611b5357611b526110ef565b5b611b5f84828501611925565b91505092915050565b5f5ffd5b5f5ffd5b5f5f85851115611b8357611b82611b68565b5b83861115611b9457611b93611b6c565b5b6001850283019150848603905094509492505050565b5f82905092915050565b5f82821b905092915050565b5f611bcb8383611baa565b82611bd68135611385565b92506020821015611c1657611c117fffffffffffffffffffffffffffffffffffffffffffffffffffffffffffffffff83602003600802611bb4565b831692505b505092915050565b5f60ff82169050919050565b5f8160f81b9050919050565b5f611c4082611c2a565b9050919050565b611c58611c5382611c1e565b611c36565b82525050565b5f7fffffffffffffffffffffffffffffffffffffffffffffffffffffffffffffff0082169050919050565b5f819050919050565b611ca3611c9e82611c5e565b611c89565b82525050565b5f819050919050565b611cc3611cbe826110b1565b611ca9565b82525050565b5f81905092915050565b5f611cde8385611cc9565b9350611ceb83858461123b565b82840190509392505050565b5f611d028288611c47565b600182019150611d128287611c92565b601f82019150611d228286611cb2565b602082019150611d33828486611cd3565b91508190509695505050505050565b5f819050919050565b611d5c611d5782611385565b611d42565b82525050565b5f611d6d8286611d4b565b602082019150611d7e828486611cd3565b9150819050949350505050565b5f81519050919050565b5f82825260208201905092915050565b5f611daf82611d8b565b611db98185611d95565b9350611dc98185602086016116f3565b611dd281611183565b840191505092915050565b5f6040820190508181035f830152611df58185611da5565b90508181036020830152611e098184611da5565b90509392505050565b5f819050919050565b5f819050919050565b5f611e3e611e39611e3484611e12565b611e1b565b6115a7565b9050919050565b611e4e81611e24565b82525050565b5f604082019050611e675f8301856115bd565b611e746020830184611e45565b9392505050565b5f604082019050611e8e5f8301856110ba565b611e9b60208301846110ba565b9392505050565b7f4e487b71000000000000000000000000000000000000000000000000000000005f52603260045260245ffd5b7f4e487b71000000000000000000000000000000000000000000000000000000005f52601160045260245ffd5b5f611f06826110b1565b9150611f11836110b1565b9250828201905080821115611f2957611f28611ecf565b5b92915050565b7f4e487b71000000000000000000000000000000000000000000000000000000005f52601260045260245ffd5b5f611f66826110b1565b9150611f71836110b1565b925082611f8157611f80611f2f565b5b828206905092915050565b5f8160011c9050919050565b5f5f8291508390505b6001851115611fe157808604811115611fbd57611fbc611ecf565b5b6001851615611fcc5780820291505b8081029050611fda85611f8c565b9450611fa1565b94509492505050565b5f82611ff957600190506120b4565b81612006575f90506120b4565b816001811461201c576002811461202657612055565b60019150506120b4565b60ff84111561203857612037611ecf565b5b8360020a91508482111561204f5761204e611ecf565b5b506120b4565b5060208310610133831016604e8410600b841016171561208a5782820a90508381111561208557612084611ecf565b5b6120b4565b6120978484846001611f98565b925090508184048111156120ae576120ad611ecf565b5b81810290505b9392505050565b5f6120c5826110b1565b91506120d0836110b1565b92506120fd7fffffffffffffffffffffffffffffffffffffffffffffffffffffffffffffffff8484611fea565b905092915050565b5f61210f826110b1565b91507fffffffffffffffffffffffffffffffffffffffffffffffffffffffffffffffff820361214157612140611ecf565b5b600182019050919050565b5f60029050919050565b5f81905092915050565b5f819050919050565b612172816110b1565b82525050565b5f6121838383612169565b60208301905092915050565b5f602082019050919050565b6121a48161214c565b6121ae8184612156565b92506121b982612160565b805f5b838110156121e95781516121d08782612178565b96506121db8361218f565b9250506001810190506121bc565b505050505050565b5f6040820190506122045f83018461219b565b92915050565b5f6020828403121561221f5761221e6110eb565b5b5f61222c84828501611601565b9150509291505056fea2646970667358221220053a24740de0e2a0dfcb8d2629d7463eea018934910465976438191cc5bbbff764736f6c634300081c0033","linkReferences":{}},"methodIdentifiers":{"getCensusRoot()":"c1da8691","getConfigId(bytes32,bytes32,bytes)":"ada1b319","getRootBlockNumber(uint256)":"650e5fcf","leafOf(address)":"fd6bc547","minAge()":"55519d87","nullifierUsed(uint256)":"79f95ee9","onVerificationSuccess(bytes,bytes)":"8d2d8d6a","owner()":"8da5cb5b","renounceOwnership()":"715018a6","scope()":"6e62d0a8","setConfigId(bytes32)":"c385abae","targetNationalityHash()":"9c6d7090","transferOwnership(address)":"f2fde38b","treeDepth()":"16a56c41","treeSize()":"8d1ddfb1","verificationConfigId()":"bb443744","verifySelfProof(bytes,bytes)":"d161802b","weightOf(address)":"dd4bc101"},"id":32}