{"abi":[{"type":"constructor","inputs":[{"name":"identityVerificationHubAddress","type":"address","internalType":"address"},{"name":"scopeSeed","type":"string","internalType":"string"},{"name":"configId","type":"bytes32","internalType":"bytes32"},{"name":"targetNationalitiesAlpha3","type":"string[]","internalType":"string[]"},{"name":"minAge_","type":"uint256","internalType":"uint256"}],"stateMutability":"nonpayable"},{"type":"function","name":"getCensusRoot","inputs":[],"outputs":[{"name":"root","type":"uint256","internalType":"uint256"}],"stateMutability":"view"},{"type":"function","name":"getConfigId","inputs":[{"name":"","type":"bytes32","internalType":"bytes32"},{"name":"","type":"bytes32","internalType":"bytes32"},{"name":"","type":"bytes","internalType":"bytes"}],"outputs":[{"name":"","type":"bytes32","internalType":"bytes32"}],"stateMutability":"view"},{"type":"function","name":"getRootBlockNumber","inputs":[{"name":"root","type":"uint256","internalType":"uint256"}],"outputs":[{"name":"blockNumber","type":"uint256","internalType":"uint256"}],"stateMutability":"view"},{"type":"function","name":"getTotalVotingPowerAtRoot","inputs":[{"name":"root","type":"uint256","internalType":"uint256"}],"outputs":[{"name":"totalVotingPower","type":"uint256","internalType":"uint256"}],"stateMutability":"view"},{"type":"function","name":"leafOf","inputs":[{"name":"user","type":"address","internalType":"address"}],"outputs":[{"name":"","type":"uint256","internalType":"uint256"}],"stateMutability":"pure"},{"type":"function","name":"minAge","inputs":[],"outputs":[{"name":"","type":"uint256","internalType":"uint256"}],"stateMutability":"view"},{"type":"function","name":"nullifierUsed","inputs":[{"name":"nullifier","type":"uint256","internalType":"uint256"}],"outputs":[{"name":"used","type":"bool","internalType":"bool"}],"stateMutability":"view"},{"type":"function","name":"onVerificationSuccess","inputs":[{"name":"output","type":"bytes","internalType":"bytes"},{"name":"userData","type":"bytes","internalType":"bytes"}],"outputs":[],"stateMutability":"nonpayable"},{"type":"function","name":"owner","inputs":[],"outputs":[{"name":"","type":"address","internalType":"address"}],"stateMutability":"view"},{"type":"function","name":"renounceOwnership","inputs":[],"outputs":[],"stateMutability":"nonpayable"},{"type":"function","name":"scope","inputs":[],"outputs":[{"name":"","type":"uint256","internalType":"uint256"}],"stateMutability":"view"},{"type":"function","name":"setConfigId","inputs":[{"name":"configId","type":"bytes32","internalType":"bytes32"}],"outputs":[],"stateMutability":"nonpayable"},{"type":"function","name":"targetNationalityHashAt","inputs":[{"name":"index","type":"uint256","internalType":"uint256"}],"outputs":[{"name":"","type":"bytes32","internalType":"bytes32"}],"stateMutability":"view"},{"type":"function","name":"targetNationalityHashesLength","inputs":[],"outputs":[{"name":"","type":"uint256","internalType":"uint256"}],"stateMutability":"view"},{"type":"function","name":"transferOwnership","inputs":[{"name":"newOwner","type":"address","internalType":"address"}],"outputs":[],"stateMutability":"nonpayable"},{"type":"function","name":"treeDepth","inputs":[],"outputs":[{"name":"","type":"uint256","internalType":"uint256"}],"stateMutability":"view"},{"type":"function","name":"treeSize","inputs":[],"outputs":[{"name":"","type":"uint256","internalType":"uint256"}],"stateMutability":"view"},{"type":"function","name":"verificationConfigId","inputs":[],"outputs":[{"name":"","type":"bytes32","internalType":"bytes32"}],"stateMutability":"view"},{"type":"function","name":"verifySelfProof","inputs":[{"name":"proofPayload","type":"bytes","internalType":"bytes"},{"name":"userContextData","type":"bytes","internalType":"bytes"}],"outputs":[],"stateMutability":"nonpayable"},{"type":"function","name":"weightOf","inputs":[{"name":"","type":"address","internalType":"address"}],"outputs":[{"name":"","type":"uint88","internalType":"uint88"}],"stateMutability":"view"},{"type":"event","name":"OwnershipTransferred","inputs":[{"name":"previousOwner","type":"address","indexed":true,"internalType":"address"},{"name":"newOwner","type":"address","indexed":true,"internalType":"address"}],"anonymous":false},{"type":"event","name":"Registered","inputs":[{"name":"user","type":"address","indexed":true,"internalType":"address"},{"name":"nullifier","type":"uint256","indexed":true,"internalType":"uint256"},{"name":"leaf","type":"uint256","indexed":false,"internalType":"uint256"},{"name":"newRoot","type":"uint256","indexed":false,"internalType":"uint256"}],"anonymous":false},{"type":"event","name":"WeightChanged","inputs":[{"name":"account","type":"address","indexed":true,"internalType":"address"},{"name":"previousWeight","type":"uint88","indexed":false,"internalType":"uint88"},{"name":"newWeight","type":"uint88","indexed":false,"internalType":"uint88"}],"anonymous":false},{"type":"error","name":"AlreadyRegisteredAddress","inputs":[]},{"type":"error","name":"DuplicateNationality","inputs":[]},{"type":"error","name":"InvalidDataFormat","inputs":[]},{"type":"error","name":"InvalidNationalityList","inputs":[]},{"type":"error","name":"LeafAlreadyExists","inputs":[]},{"type":"error","name":"LeafCannotBeZero","inputs":[]},{"type":"error","name":"LeafGreaterThanSnarkScalarField","inputs":[]},{"type":"error","name":"NotAdult","inputs":[]},{"type":"error","name":"NullifierAlreadyUsed","inputs":[]},{"type":"error","name":"OwnableInvalidOwner","inputs":[{"name":"owner","type":"address","internalType":"address"}]},{"type":"error","name":"OwnableUnauthorizedAccount","inputs":[{"name":"account","type":"address","internalType":"address"}]},{"type":"error","name":"UnauthorizedCaller","inputs":[]},{"type":"error","name":"WrongNationality","inputs":[]}],"bytecode":{"object":"0x60c060405234801561000f575f5ffd5b5060405161355d38038061355d83398181016040528101906100319190610dd1565b61003f6102bd60201b60201c565b85858173ffffffffffffffffffffffffffffffffffffffff1660808173ffffffffffffffffffffffffffffffffffffffff168152505061009330826100886102c460201b60201c565b61031e60201b60201c565b5f8190555050505f73ffffffffffffffffffffffffffffffffffffffff168173ffffffffffffffffffffffffffffffffffffffff160361010a575f6040517f1e4fbdf70000000000000000000000000000000000000000000000000000000081526004016101019190610e8f565b60405180910390fd5b6101198161041760201b60201c565b505f825190505f81148061012d5750600581115b15610164576040517f979c3fb900000000000000000000000000000000000000000000000000000000815260040160405180910390fd5b5f5f90505b8181101561028c575f84828151811061018557610184610ea8565b5b602002602001015190505f8190505f8151036101cd576040517f979c3fb900000000000000000000000000000000000000000000000000000000815260040160405180910390fd5b5f8180519060200120905060045f8281526020019081526020015f205f9054906101000a900460ff161561022d576040517f452f2a0300000000000000000000000000000000000000000000000000000000815260040160405180910390fd5b600160045f8381526020019081526020015f205f6101000a81548160ff021916908315150217905550600381908060018154018082558091505060019003905f5260205f20015f90919091909150555050508080600101915050610169565b50836002819055508160a081815250506102ac60056104da60201b60201c565b600b81905550505050505050611198565b5f33905090565b5f5f46905061a4ec81036102ef5773f134707a4c4a3a76b8410fc0294d620a7c34158191505061031b565b62aa044c810361031657730a782f7f9f8aac6e0bacaf3cd4aa292c3275c6f291505061031b565b5f9150505b90565b5f5f73ffffffffffffffffffffffffffffffffffffffff168273ffffffffffffffffffffffffffffffffffffffff160361035a575f9050610410565b5f61036b85846104fa60201b60201c565b90505f61037d856105eb60201b60201c565b90508373ffffffffffffffffffffffffffffffffffffffff1663561558fe6040518060400160405280858152602001848152506040518263ffffffff1660e01b81526004016103cc9190610f7a565b602060405180830381865afa1580156103e7573d5f5f3e3d5ffd5b505050506040513d601f19601f8201168201806040525081019061040b9190610f93565b925050505b9392505050565b5f60015f9054906101000a900473ffffffffffffffffffffffffffffffffffffffff1690508160015f6101000a81548173ffffffffffffffffffffffffffffffffffffffff021916908373ffffffffffffffffffffffffffffffffffffffff1602179055508173ffffffffffffffffffffffffffffffffffffffff168173ffffffffffffffffffffffffffffffffffffffff167f8be0079c531659141344cd1fd0a4f28419497f9722a3daafe3b4186f6b6457e060405160405180910390a35050565b5f816002015f836001015481526020019081526020015f20549050919050565b5f5f61050b846106f260201b60201c565b90505f61052e610523835f601f6109f060201b60201c565b6105eb60201b60201c565b90505f61055261054784601f602a6109f060201b60201c565b6105eb60201b60201c565b90508473ffffffffffffffffffffffffffffffffffffffff1663561558fe6040518060400160405280858152602001848152506040518263ffffffff1660e01b81526004016105a19190610f7a565b602060405180830381865afa1580156105bc573d5f5f3e3d5ffd5b505050506040513d601f19601f820116820180604052508101906105e09190610f93565b935050505092915050565b5f5f829050601f81511115610635576040517f08c379a000000000000000000000000000000000000000000000000000000000815260040161062c9061103e565b60405180910390fd5b5f5f90505f5f90505b82518110156106e757607f83828151811061065c5761065b610ea8565b5b602001015160f81c60f81b60f81c60ff1611156106ae576040517f08c379a00000000000000000000000000000000000000000000000000000000081526004016106a5906110a6565b60405180910390fd5b8281815181106106c1576106c0610ea8565b5b602001015160f81c60f81b60f81c60ff16600883901b179150808060010191505061063e565b508092505050919050565b60605f8273ffffffffffffffffffffffffffffffffffffffff165f1b90505f6040518060400160405280601081526020017f303132333435363738396162636465660000000000000000000000000000000081525090505f602a67ffffffffffffffff81111561076557610764610b65565b5b6040519080825280601f01601f1916602001820160405280156107975781602001600182028036833780820191505090505b5090507f3000000000000000000000000000000000000000000000000000000000000000815f815181106107ce576107cd610ea8565b5b60200101907effffffffffffffffffffffffffffffffffffffffffffffffffffffffffffff191690815f1a9053507f78000000000000000000000000000000000000000000000000000000000000008160018151811061083157610830610ea8565b5b60200101907effffffffffffffffffffffffffffffffffffffffffffffffffffffffffffff191690815f1a9053505f5f90505b60148110156109e45782600485600c8461087e91906110f1565b6020811061088f5761088e610ea8565b5b1a60f81b7effffffffffffffffffffffffffffffffffffffffffffffffffffffffffffff1916901c60f81c60ff16815181106108ce576108cd610ea8565b5b602001015160f81c60f81b826002836108e79190611124565b60026108f391906110f1565b8151811061090457610903610ea8565b5b60200101907effffffffffffffffffffffffffffffffffffffffffffffffffffffffffffff191690815f1a90535082600f60f81b85600c8461094691906110f1565b6020811061095757610956610ea8565b5b1a60f81b1660f81c60ff168151811061097357610972610ea8565b5b602001015160f81c60f81b8260028361098c9190611124565b600361099891906110f1565b815181106109a9576109a8610ea8565b5b60200101907effffffffffffffffffffffffffffffffffffffffffffffffffffffffffffff191690815f1a9053508080600101915050610864565b50809350505050919050565b60605f8490505f8484610a039190611165565b67ffffffffffffffff811115610a1c57610a1b610b65565b5b6040519080825280601f01601f191660200182016040528015610a4e5781602001600182028036833780820191505090505b5090505f8590505b84811015610ad557828181518110610a7157610a70610ea8565b5b602001015160f81c60f81b828783610a899190611165565b81518110610a9a57610a99610ea8565b5b60200101907effffffffffffffffffffffffffffffffffffffffffffffffffffffffffffff191690815f1a9053508080600101915050610a56565b5080925050509392505050565b5f604051905090565b5f5ffd5b5f5ffd5b5f73ffffffffffffffffffffffffffffffffffffffff82169050919050565b5f610b1c82610af3565b9050919050565b610b2c81610b12565b8114610b36575f5ffd5b50565b5f81519050610b4781610b23565b92915050565b5f5ffd5b5f5ffd5b5f601f19601f8301169050919050565b7f4e487b71000000000000000000000000000000000000000000000000000000005f52604160045260245ffd5b610b9b82610b55565b810181811067ffffffffffffffff82111715610bba57610bb9610b65565b5b80604052505050565b5f610bcc610ae2565b9050610bd88282610b92565b919050565b5f67ffffffffffffffff821115610bf757610bf6610b65565b5b610c0082610b55565b9050602081019050919050565b8281835e5f83830152505050565b5f610c2d610c2884610bdd565b610bc3565b905082815260208101848484011115610c4957610c48610b51565b5b610c54848285610c0d565b509392505050565b5f82601f830112610c7057610c6f610b4d565b5b8151610c80848260208601610c1b565b91505092915050565b5f819050919050565b610c9b81610c89565b8114610ca5575f5ffd5b50565b5f81519050610cb681610c92565b92915050565b5f67ffffffffffffffff821115610cd657610cd5610b65565b5b602082029050602081019050919050565b5f5ffd5b5f610cfd610cf884610cbc565b610bc3565b90508083825260208201905060208402830185811115610d2057610d1f610ce7565b5b835b81811015610d6757805167ffffffffffffffff811115610d4557610d44610b4d565b5b808601610d528982610c5c565b85526020850194505050602081019050610d22565b5050509392505050565b5f82601f830112610d8557610d84610b4d565b5b8151610d95848260208601610ceb565b91505092915050565b5f819050919050565b610db081610d9e565b8114610dba575f5ffd5b50565b5f81519050610dcb81610da7565b92915050565b5f5f5f5f5f60a08688031215610dea57610de9610aeb565b5b5f610df788828901610b39565b955050602086015167ffffffffffffffff811115610e1857610e17610aef565b5b610e2488828901610c5c565b9450506040610e3588828901610ca8565b935050606086015167ffffffffffffffff811115610e5657610e55610aef565b5b610e6288828901610d71565b9250506080610e7388828901610dbd565b9150509295509295909350565b610e8981610b12565b82525050565b5f602082019050610ea25f830184610e80565b92915050565b7f4e487b71000000000000000000000000000000000000000000000000000000005f52603260045260245ffd5b5f60029050919050565b5f81905092915050565b5f819050919050565b610efb81610d9e565b82525050565b5f610f0c8383610ef2565b60208301905092915050565b5f602082019050919050565b610f2d81610ed5565b610f378184610edf565b9250610f4282610ee9565b805f5b83811015610f72578151610f598782610f01565b9650610f6483610f18565b925050600181019050610f45565b505050505050565b5f604082019050610f8d5f830184610f24565b92915050565b5f60208284031215610fa857610fa7610aeb565b5b5f610fb584828501610dbd565b91505092915050565b5f82825260208201905092915050565b7f537472696e6720746f6f206c6f6e6720666f7220426967496e7420636f6e76655f8201527f7273696f6e000000000000000000000000000000000000000000000000000000602082015250565b5f611028602583610fbe565b915061103382610fce565b604082019050919050565b5f6020820190508181035f8301526110558161101c565b9050919050565b7f4e6f6e2d415343494920636861726163746572206465746563746564000000005f82015250565b5f611090601c83610fbe565b915061109b8261105c565b602082019050919050565b5f6020820190508181035f8301526110bd81611084565b9050919050565b7f4e487b71000000000000000000000000000000000000000000000000000000005f52601160045260245ffd5b5f6110fb82610d9e565b915061110683610d9e565b925082820190508082111561111e5761111d6110c4565b5b92915050565b5f61112e82610d9e565b915061113983610d9e565b925082820261114781610d9e565b9150828204841483151761115e5761115d6110c4565b5b5092915050565b5f61116f82610d9e565b915061117a83610d9e565b9250828203905081811115611192576111916110c4565b5b92915050565b60805160a0516123966111c75f395f818161046b0152610ad101525f818161050d015261077401526123965ff3fe608060405234801561000f575f5ffd5b506004361061012a575f3560e01c8063ada1b319116100ab578063d161802b1161006f578063d161802b14610320578063dd4bc1011461033c578063f2fde38b1461036c578063f8d0562f14610388578063fd6bc547146103b85761012a565b8063ada1b3191461027a578063bb443744146102aa578063bfe82951146102c8578063c1da8691146102e6578063c385abae146103045761012a565b8063715018a6116100f2578063715018a6146101e857806379f95ee9146101f25780638d1ddfb1146102225780638d2d8d6a146102405780638da5cb5b1461025c5761012a565b806316a56c411461012e578063215411461461014c57806355519d871461017c578063650e5fcf1461019a5780636e62d0a8146101ca575b5f5ffd5b6101366103e8565b60405161014391906111f4565b60405180910390f35b61016660048036038101906101619190611248565b6103f4565b60405161017391906111f4565b60405180910390f35b610184610469565b60405161019191906111f4565b60405180910390f35b6101b460048036038101906101af9190611248565b61048d565b6040516101c191906111f4565b60405180910390f35b6101d26104c8565b6040516101df91906111f4565b60405180910390f35b6101f06104d0565b005b61020c60048036038101906102079190611248565b6104e3565b604051610219919061128d565b60405180910390f35b61022a610500565b60405161023791906111f4565b60405180910390f35b61025a600480360381019061025591906113e2565b61050b565b005b6102646105b6565b6040516102719190611497565b60405180910390f35b610294600480360381019061028f91906114e3565b6105de565b6040516102a1919061155e565b60405180910390f35b6102b26105eb565b6040516102bf919061155e565b60405180910390f35b6102d06105f1565b6040516102dd91906111f4565b60405180910390f35b6102ee6105fd565b6040516102fb91906111f4565b60405180910390f35b61031e60048036038101906103199190611577565b610606565b005b61033a600480360381019061033591906115ff565b610618565b005b610356600480360381019061035191906116a7565b610829565b60405161036391906116f7565b60405180910390f35b610386600480360381019061038191906116a7565b610850565b005b6103a2600480360381019061039d9190611248565b6108d4565b6040516103af919061155e565b60405180910390f35b6103d260048036038101906103cd91906116a7565b6108f9565b6040516103df91906111f4565b60405180910390f35b5f600560010154905090565b5f3073ffffffffffffffffffffffffffffffffffffffff16638d1ddfb16040518163ffffffff1660e01b8152600401602060405180830381865afa15801561043e573d5f5f3e3d5ffd5b505050506040513d601f19601f820116820180604052508101906104629190611724565b9050919050565b7f000000000000000000000000000000000000000000000000000000000000000081565b5f5f820361049d575f90506104c3565b600b5482036104ae574390506104c3565b60d55f8381526020019081526020015f205490505b919050565b5f5f54905090565b6104d8610918565b6104e15f61099f565b565b600a602052805f5260405f205f915054906101000a900460ff1681565b5f60055f0154905090565b7f000000000000000000000000000000000000000000000000000000000000000073ffffffffffffffffffffffffffffffffffffffff163373ffffffffffffffffffffffffffffffffffffffff1614610590576040517f5c427cd900000000000000000000000000000000000000000000000000000000815260040160405180910390fd5b5f828060200190518101906105a59190611c77565b90506105b18183610a62565b505050565b5f60015f9054906101000a900473ffffffffffffffffffffffffffffffffffffffff16905090565b5f60025490509392505050565b60025481565b5f600380549050905090565b5f600b54905090565b61060e610918565b8060028190555050565b6020848490501015610656576040517fa512e2ff00000000000000000000000000000000000000000000000000000000815260040160405180910390fd5b6040828290501015610694576040517fa512e2ff00000000000000000000000000000000000000000000000000000000815260040160405180910390fd5b5f843590505f83835f906020926106ad93929190611cc6565b906106b89190611d16565b90505f84846020906040926106cf93929190611cc6565b906106da9190611d16565b90505f858560409080926106f093929190611cc6565b8080601f0160208091040260200160405190810160405280939291908181526020018383808284375f81840152601f19601f8201169050808301925050505050505090505f6107408484846105de565b90505f60025f60081b5f548c8c604051602001610761959493929190611e4d565b60405160208183030381529060405290507f000000000000000000000000000000000000000000000000000000000000000073ffffffffffffffffffffffffffffffffffffffff1663f7e83aee82848b8b6040516020016107c493929190611eb8565b6040516020818303038152906040526040518363ffffffff1660e01b81526004016107f0929190611f33565b5f604051808303815f87803b158015610807575f5ffd5b505af1158015610819573d5f5f3e3d5ffd5b5050505050505050505050505050565b6009602052805f5260405f205f915054906101000a90046affffffffffffffffffffff1681565b610858610918565b5f73ffffffffffffffffffffffffffffffffffffffff168173ffffffffffffffffffffffffffffffffffffffff16036108c8575f6040517f1e4fbdf70000000000000000000000000000000000000000000000000000000081526004016108bf9190611497565b60405180910390fd5b6108d18161099f565b50565b5f600382815481106108e9576108e8611f68565b5b905f5260205f2001549050919050565b5f8173ffffffffffffffffffffffffffffffffffffffff169050919050565b610920610e19565b73ffffffffffffffffffffffffffffffffffffffff1661093e6105b6565b73ffffffffffffffffffffffffffffffffffffffff161461099d57610961610e19565b6040517f118cdaa70000000000000000000000000000000000000000000000000000000081526004016109949190611497565b60405180910390fd5b565b5f60015f9054906101000a900473ffffffffffffffffffffffffffffffffffffffff1690508160015f6101000a81548173ffffffffffffffffffffffffffffffffffffffff021916908373ffffffffffffffffffffffffffffffffffffffff1602179055508173ffffffffffffffffffffffffffffffffffffffff168173ffffffffffffffffffffffffffffffffffffffff167f8be0079c531659141344cd1fd0a4f28419497f9722a3daafe3b4186f6b6457e060405160405180910390a35050565b5f826020015190505f73ffffffffffffffffffffffffffffffffffffffff168173ffffffffffffffffffffffffffffffffffffffff1603610acf576040517f9642e73700000000000000000000000000000000000000000000000000000000815260040160405180910390fd5b7f00000000000000000000000000000000000000000000000000000000000000008361016001511015610b2e576040517f6822bdfc00000000000000000000000000000000000000000000000000000000815260040160405180910390fd5b610b3b8360e00151610e20565b610b71576040517ff6ac14a700000000000000000000000000000000000000000000000000000000815260040160405180910390fd5b5f60095f8373ffffffffffffffffffffffffffffffffffffffff1673ffffffffffffffffffffffffffffffffffffffff1681526020019081526020015f205f9054906101000a90046affffffffffffffffffffff166affffffffffffffffffffff1614610c0a576040517f9642e73700000000000000000000000000000000000000000000000000000000815260040160405180910390fd5b600a5f846040015181526020019081526020015f205f9054906101000a900460ff1615610c63576040517fcad2ae0200000000000000000000000000000000000000000000000000000000815260040160405180910390fd5b6001600a5f856040015181526020019081526020015f205f6101000a81548160ff0219169083151502179055505f610c9c826001610e4d565b90505f610ca882610e80565b90505f60095f8573ffffffffffffffffffffffffffffffffffffffff1673ffffffffffffffffffffffffffffffffffffffff1681526020019081526020015f205f9054906101000a90046affffffffffffffffffffff169050600160095f8673ffffffffffffffffffffffffffffffffffffffff1673ffffffffffffffffffffffffffffffffffffffff1681526020019081526020015f205f6101000a8154816affffffffffffffffffffff02191690836affffffffffffffffffffff1602179055508373ffffffffffffffffffffffffffffffffffffffff167fee82339564ef9f72eccdbb67b46a62198422524ab9c7e3fcbdd194fa1b46461b826001604051610db4929190611fd7565b60405180910390a285604001518473ffffffffffffffffffffffffffffffffffffffff167fabe5b1202d1f4ed2c1baccf335320ceae3abd90670864b741e80a2ef5671d8828585604051610e09929190611ffe565b60405180910390a3505050505050565b5f33905090565b5f60045f838051906020012081526020019081526020015f205f9054906101000a900460ff169050919050565b5f816affffffffffffffffffffff1660588473ffffffffffffffffffffffffffffffffffffffff16901b17905092915050565b5f610e95826005610f6c90919063ffffffff16565b90505f600b5490505f8114158015610ead5750818114155b15610f5f575f4390505f600c60d45460648110610ecd57610ecc611f68565b5b015490505f8114610eed5760d55f8281526020019081526020015f205f90555b82600c60d45460648110610f0457610f03611f68565b5b018190555081607060d45460648110610f2057610f1f611f68565b5b01819055508160d55f8581526020019081526020015f20819055506064600160d454610f4c9190612052565b610f5691906120b2565b60d48190555050505b81600b8190555050919050565b5f7f30644e72e131a029b85045b68181585d2833e84879b9709143e1f593f00000018210610fc6576040517fc380a82e00000000000000000000000000000000000000000000000000000000815260040160405180910390fd5b5f8203610fff576040517f29691be200000000000000000000000000000000000000000000000000000000815260040160405180910390fd5b61100983836111bc565b15611040576040517f258a195a00000000000000000000000000000000000000000000000000000000815260040160405180910390fd5b5f835f015490505f8460010154905060018261105c9190612052565b8160026110699190612211565b101561107c57806110799061225b565b90505b8085600101819055505f8490505f5f90505b8281101561116b576001808286901c16036111475773__$a2daaad8940c9006af3f1557205ebe532d$__63561558fe60405180604001604052808a6002015f8681526020019081526020015f20548152602001858152506040518263ffffffff1660e01b81526004016111019190612347565b602060405180830381865af415801561111c573d5f5f3e3d5ffd5b505050506040513d601f19601f820116820180604052508101906111409190611724565b9150611160565b81876002015f8381526020019081526020015f20819055505b80600101905061108e565b50826111769061225b565b925082865f018190555080866002015f8481526020019081526020015f208190555082866003015f8781526020019081526020015f208190555080935050505092915050565b5f5f836003015f8481526020019081526020015f20541415905092915050565b5f819050919050565b6111ee816111dc565b82525050565b5f6020820190506112075f8301846111e5565b92915050565b5f604051905090565b5f5ffd5b5f5ffd5b611227816111dc565b8114611231575f5ffd5b50565b5f813590506112428161121e565b92915050565b5f6020828403121561125d5761125c611216565b5b5f61126a84828501611234565b91505092915050565b5f8115159050919050565b61128781611273565b82525050565b5f6020820190506112a05f83018461127e565b92915050565b5f5ffd5b5f5ffd5b5f601f19601f8301169050919050565b7f4e487b71000000000000000000000000000000000000000000000000000000005f52604160045260245ffd5b6112f4826112ae565b810181811067ffffffffffffffff82111715611313576113126112be565b5b80604052505050565b5f61132561120d565b905061133182826112eb565b919050565b5f67ffffffffffffffff8211156113505761134f6112be565b5b611359826112ae565b9050602081019050919050565b828183375f83830152505050565b5f61138661138184611336565b61131c565b9050828152602081018484840111156113a2576113a16112aa565b5b6113ad848285611366565b509392505050565b5f82601f8301126113c9576113c86112a6565b5b81356113d9848260208601611374565b91505092915050565b5f5f604083850312156113f8576113f7611216565b5b5f83013567ffffffffffffffff8111156114155761141461121a565b5b611421858286016113b5565b925050602083013567ffffffffffffffff8111156114425761144161121a565b5b61144e858286016113b5565b9150509250929050565b5f73ffffffffffffffffffffffffffffffffffffffff82169050919050565b5f61148182611458565b9050919050565b61149181611477565b82525050565b5f6020820190506114aa5f830184611488565b92915050565b5f819050919050565b6114c2816114b0565b81146114cc575f5ffd5b50565b5f813590506114dd816114b9565b92915050565b5f5f5f606084860312156114fa576114f9611216565b5b5f611507868287016114cf565b9350506020611518868287016114cf565b925050604084013567ffffffffffffffff8111156115395761153861121a565b5b611545868287016113b5565b9150509250925092565b611558816114b0565b82525050565b5f6020820190506115715f83018461154f565b92915050565b5f6020828403121561158c5761158b611216565b5b5f611599848285016114cf565b91505092915050565b5f5ffd5b5f5ffd5b5f5f83601f8401126115bf576115be6112a6565b5b8235905067ffffffffffffffff8111156115dc576115db6115a2565b5b6020830191508360018202830111156115f8576115f76115a6565b5b9250929050565b5f5f5f5f6040858703121561161757611616611216565b5b5f85013567ffffffffffffffff8111156116345761163361121a565b5b611640878288016115aa565b9450945050602085013567ffffffffffffffff8111156116635761166261121a565b5b61166f878288016115aa565b925092505092959194509250565b61168681611477565b8114611690575f5ffd5b50565b5f813590506116a18161167d565b92915050565b5f602082840312156116bc576116bb611216565b5b5f6116c984828501611693565b91505092915050565b5f6affffffffffffffffffffff82169050919050565b6116f1816116d2565b82525050565b5f60208201905061170a5f8301846116e8565b92915050565b5f8151905061171e8161121e565b92915050565b5f6020828403121561173957611738611216565b5b5f61174684828501611710565b91505092915050565b5f5ffd5b5f5ffd5b5f81519050611765816114b9565b92915050565b5f67ffffffffffffffff821115611785576117846112be565b5b602082029050919050565b5f6117a261179d8461176b565b61131c565b905080602084028301858111156117bc576117bb6115a6565b5b835b818110156117e557806117d18882611710565b8452602084019350506020810190506117be565b5050509392505050565b5f82601f830112611803576118026112a6565b5b6004611810848285611790565b91505092915050565b5f67ffffffffffffffff821115611833576118326112be565b5b61183c826112ae565b9050602081019050919050565b8281835e5f83830152505050565b5f61186961186484611819565b61131c565b905082815260208101848484011115611885576118846112aa565b5b611890848285611849565b509392505050565b5f82601f8301126118ac576118ab6112a6565b5b81516118bc848260208601611857565b91505092915050565b5f67ffffffffffffffff8211156118df576118de6112be565b5b602082029050602081019050919050565b5f6119026118fd846118c5565b61131c565b90508083825260208201905060208402830185811115611925576119246115a6565b5b835b8181101561196c57805167ffffffffffffffff81111561194a576119496112a6565b5b8086016119578982611898565b85526020850194505050602081019050611927565b5050509392505050565b5f82601f83011261198a576119896112a6565b5b815161199a8482602086016118f0565b91505092915050565b5f67ffffffffffffffff8211156119bd576119bc6112be565b5b602082029050919050565b6119d181611273565b81146119db575f5ffd5b50565b5f815190506119ec816119c8565b92915050565b5f611a046119ff846119a3565b61131c565b90508060208402830185811115611a1e57611a1d6115a6565b5b835b81811015611a475780611a3388826119de565b845260208401935050602081019050611a20565b5050509392505050565b5f82601f830112611a6557611a646112a6565b5b6003611a728482856119f2565b91505092915050565b5f6102408284031215611a9157611a9061174f565b5b611a9c6101a061131c565b90505f611aab84828501611757565b5f830152506020611abe84828501611710565b6020830152506040611ad284828501611710565b6040830152506060611ae6848285016117ef565b60608301525060e082015167ffffffffffffffff811115611b0a57611b09611753565b5b611b1684828501611898565b60808301525061010082015167ffffffffffffffff811115611b3b57611b3a611753565b5b611b4784828501611976565b60a08301525061012082015167ffffffffffffffff811115611b6c57611b6b611753565b5b611b7884828501611898565b60c08301525061014082015167ffffffffffffffff811115611b9d57611b9c611753565b5b611ba984828501611898565b60e08301525061016082015167ffffffffffffffff811115611bce57611bcd611753565b5b611bda84828501611898565b6101008301525061018082015167ffffffffffffffff811115611c0057611bff611753565b5b611c0c84828501611898565b610120830152506101a082015167ffffffffffffffff811115611c3257611c31611753565b5b611c3e84828501611898565b610140830152506101c0611c5484828501611710565b610160830152506101e0611c6a84828501611a51565b6101808301525092915050565b5f60208284031215611c8c57611c8b611216565b5b5f82015167ffffffffffffffff811115611ca957611ca861121a565b5b611cb584828501611a7b565b91505092915050565b5f5ffd5b5f5ffd5b5f5f85851115611cd957611cd8611cbe565b5b83861115611cea57611ce9611cc2565b5b6001850283019150848603905094509492505050565b5f82905092915050565b5f82821b905092915050565b5f611d218383611d00565b82611d2c81356114b0565b92506020821015611d6c57611d677fffffffffffffffffffffffffffffffffffffffffffffffffffffffffffffffff83602003600802611d0a565b831692505b505092915050565b5f60ff82169050919050565b5f8160f81b9050919050565b5f611d9682611d80565b9050919050565b611dae611da982611d74565b611d8c565b82525050565b5f7fffffffffffffffffffffffffffffffffffffffffffffffffffffffffffffff0082169050919050565b5f819050919050565b611df9611df482611db4565b611ddf565b82525050565b5f819050919050565b611e19611e14826111dc565b611dff565b82525050565b5f81905092915050565b5f611e348385611e1f565b9350611e41838584611366565b82840190509392505050565b5f611e588288611d9d565b600182019150611e688287611de8565b601f82019150611e788286611e08565b602082019150611e89828486611e29565b91508190509695505050505050565b5f819050919050565b611eb2611ead826114b0565b611e98565b82525050565b5f611ec38286611ea1565b602082019150611ed4828486611e29565b9150819050949350505050565b5f81519050919050565b5f82825260208201905092915050565b5f611f0582611ee1565b611f0f8185611eeb565b9350611f1f818560208601611849565b611f28816112ae565b840191505092915050565b5f6040820190508181035f830152611f4b8185611efb565b90508181036020830152611f5f8184611efb565b90509392505050565b7f4e487b71000000000000000000000000000000000000000000000000000000005f52603260045260245ffd5b5f819050919050565b5f819050919050565b5f611fc1611fbc611fb784611f95565b611f9e565b6116d2565b9050919050565b611fd181611fa7565b82525050565b5f604082019050611fea5f8301856116e8565b611ff76020830184611fc8565b9392505050565b5f6040820190506120115f8301856111e5565b61201e60208301846111e5565b9392505050565b7f4e487b71000000000000000000000000000000000000000000000000000000005f52601160045260245ffd5b5f61205c826111dc565b9150612067836111dc565b925082820190508082111561207f5761207e612025565b5b92915050565b7f4e487b71000000000000000000000000000000000000000000000000000000005f52601260045260245ffd5b5f6120bc826111dc565b91506120c7836111dc565b9250826120d7576120d6612085565b5b828206905092915050565b5f8160011c9050919050565b5f5f8291508390505b60018511156121375780860481111561211357612112612025565b5b60018516156121225780820291505b8081029050612130856120e2565b94506120f7565b94509492505050565b5f8261214f576001905061220a565b8161215c575f905061220a565b8160018114612172576002811461217c576121ab565b600191505061220a565b60ff84111561218e5761218d612025565b5b8360020a9150848211156121a5576121a4612025565b5b5061220a565b5060208310610133831016604e8410600b84101617156121e05782820a9050838111156121db576121da612025565b5b61220a565b6121ed84848460016120ee565b9250905081840481111561220457612203612025565b5b81810290505b9392505050565b5f61221b826111dc565b9150612226836111dc565b92506122537fffffffffffffffffffffffffffffffffffffffffffffffffffffffffffffffff8484612140565b905092915050565b5f612265826111dc565b91507fffffffffffffffffffffffffffffffffffffffffffffffffffffffffffffffff820361229757612296612025565b5b600182019050919050565b5f60029050919050565b5f81905092915050565b5f819050919050565b6122c8816111dc565b82525050565b5f6122d983836122bf565b60208301905092915050565b5f602082019050919050565b6122fa816122a2565b61230481846122ac565b925061230f826122b6565b805f5b8381101561233f57815161232687826122ce565b9650612331836122e5565b925050600181019050612312565b505050505050565b5f60408201905061235a5f8301846122f1565b9291505056fea2646970667358221220ee9c554c55f446ae733208bd2b3653f1add46033e84571a52f4502f69edc5f8f64736f6c634300081c0033","linkReferences":{"lib/poseidon-solidity/contracts/PoseidonT3.sol":{"PoseidonT3":[{"start":8812,"length":20}]}}},"methodIdentifiers":{"getCensusRoot()":"c1da8691","getConfigId(bytes32,bytes32,bytes)":"ada1b319","getRootBlockNumber(uint256)":"650e5fcf","getTotalVotingPowerAtRoot(uint256)":"21541146","leafOf(address)":"fd6bc547","minAge()":"55519d87","nullifierUsed(uint256)":"79f95ee9","onVerificationSuccess(bytes,bytes)":"8d2d8d6a","owner()":"8da5cb5b","renounceOwnership()":"715018a6","scope()":"6e62d0a8","setConfigId(bytes32)":"c385abae","targetNationalityHashAt(uint256)":"f8d0562f","targetNationalityHashesLength()":"bfe82951","transferOwnership(address)":"f2fde38b","treeDepth()":"16a56c41","treeSize()":"8d1ddfb1","verificationConfigId()":"bb443744","verifySelfProof(bytes,bytes)":"d161802b","weightOf(address)":"dd4bc101"},"id":38}