{"abi":[{"type":"constructor","inputs":[{"name":"_TRUSTED_BACKEND","type":"address","internalType":"address"}],"stateMutability":"nonpayable"},{"type":"function","name":"TRUSTED_BACKEND","inputs":[],"outputs":[{"name":"","type":"address","internalType":"address"}],"stateMutability":"view"},{"type":"function","name":"getCensusRoot","inputs":[],"outputs":[{"name":"","type":"uint256","internalType":"uint256"}],"stateMutability":"view"},{"type":"function","name":"getRootBlockNumber","inputs":[{"name":"root","type":"uint256","internalType":"uint256"}],"outputs":[{"name":"","type":"uint256","internalType":"uint256"}],"stateMutability":"view"},{"type":"function","name":"getTotalVotingPowerAtRoot","inputs":[{"name":"","type":"uint256","internalType":"uint256"}],"outputs":[{"name":"","type":"uint256","internalType":"uint256"}],"stateMutability":"view"},{"type":"function","name":"nullifierUsed","inputs":[{"name":"","type":"uint256","internalType":"uint256"}],"outputs":[{"name":"","type":"bool","internalType":"bool"}],"stateMutability":"view"},{"type":"function","name":"register","inputs":[{"name":"account","type":"address","internalType":"address"},{"name":"nullifier","type":"uint256","internalType":"uint256"}],"outputs":[],"stateMutability":"nonpayable"},{"type":"function","name":"treeDepth","inputs":[],"outputs":[{"name":"","type":"uint256","internalType":"uint256"}],"stateMutability":"view"},{"type":"function","name":"treeSize","inputs":[],"outputs":[{"name":"","type":"uint256","internalType":"uint256"}],"stateMutability":"view"},{"type":"function","name":"weightOf","inputs":[{"name":"","type":"address","internalType":"address"}],"outputs":[{"name":"","type":"uint88","internalType":"uint88"}],"stateMutability":"view"},{"type":"event","name":"Registered","inputs":[{"name":"account","type":"address","indexed":true,"internalType":"address"},{"name":"nullifier","type":"uint256","indexed":true,"internalType":"uint256"},{"name":"newRoot","type":"uint256","indexed":false,"internalType":"uint256"}],"anonymous":false},{"type":"event","name":"WeightChanged","inputs":[{"name":"account","type":"address","indexed":true,"internalType":"address"},{"name":"previousWeight","type":"uint88","indexed":false,"internalType":"uint88"},{"name":"newWeight","type":"uint88","indexed":false,"internalType":"uint88"}],"anonymous":false},{"type":"error","name":"AlreadyRegistered","inputs":[]},{"type":"error","name":"LeafAlreadyExists","inputs":[]},{"type":"error","name":"LeafCannotBeZero","inputs":[]},{"type":"error","name":"LeafGreaterThanSnarkScalarField","inputs":[]},{"type":"error","name":"NotTrustedBackend","inputs":[]},{"type":"error","name":"NullifierAlreadyUsed","inputs":[]}],"bytecode":{"object":"0x60a034607f57601f6106f538819003918201601f19168301916001600160401b03831184841017608357808492602094604052833981010312607f57516001600160a01b0381168103607f576080526001545f52600260205260405f205460065560405161065d9081610098823960805181818161014f01526105ac0152f35b5f80fd5b634e487b7160e01b5f52604160045260245ffdfe6080806040526004361015610012575f80fd5b5f3560e01c90816302b2bfe11461059a5750806316a56c411461057d5780632154114614610560578063650e5fcf1461053a5780636d705ebb1461013057806379f95ee9146101015780638d1ddfb1146100e5578063c1da8691146100c85763dd4bc1011461007f575f80fd5b346100c45760203660031901126100c4576001600160a01b036100a06105db565b165f52600460205260206affffffffffffffffffffff60405f205416604051908152f35b5f80fd5b346100c4575f3660031901126100c4576020600654604051908152f35b346100c4575f3660031901126100c45760205f54604051908152f35b346100c45760203660031901126100c4576004355f526005602052602060ff60405f2054166040519015158152f35b346100c45760403660031901126100c4576101496105db565b602435907f00000000000000000000000000000000000000000000000000000000000000006001600160a01b0316330361052b57815f52600560205260ff60405f20541661051c576001600160a01b03165f818152600460205260409020546affffffffffffffffffffff1661050d57815f52600560205260405f20600160ff19825416179055805f52600460205260405f2060016affffffffffffffffffffff198254161790557f30644e72e131a029b85045b68181585d2833e84879b9709143e1f593f00000018110155f1461022a576361c0541760e11b5f5260045ffd5b8061023e576314b48df160e11b5f5260045ffd5b805f52600360205260405f20546104fe575f5460015460ff811161037f576001820180831161037f576001821b106104f0575b8060015582915f5b8281106103c4575061028a90610619565b90815f555f5260026020528160405f2055825f52600360205260405f2055600654801515806103ba575b61031b575b506020817fcda33a906ffa8a5f960826827500581f4613a5db7a84b250433e0d591a63093892600655837fee82339564ef9f72eccdbb67b46a62198422524ab9c7e3fcbdd194fa1b46461b604080515f8152600186820152a2604051908152a3005b60cf5460648110156103935760070154806103a7575b5060cf5460648110156103935781906007015560cf546064811015610393574390606b01555f5260d06020524360405f205560cf546001810180911161037f576064900660cf5560206102b9565b634e487b7160e01b5f52601160045260245ffd5b634e487b7160e01b5f52603260045260245ffd5b5f5260d06020525f604081205584610331565b50818114156102b4565b9260018083861c16145f146104d957604051906040820182811067ffffffffffffffff82111761049d57604052845f52600260205260405f20548252602082015260405190632b0aac7f60e11b825260048201905f915b600283106104c3575050506020816044817350050301145d95730112e53284fb5065fd7d0f7d5af480156104b8575f9061045c575b60019150935b01610279565b5060203d81116104b1575b601f8101601f1916820167ffffffffffffffff81118382101761049d576020918391604052810103126100c45760019051610450565b634e487b7160e01b5f52604160045260245ffd5b503d610467565b6040513d5f823e3d90fd5b602080600192845181520192019201919061041b565b92806001915f5260026020528460405f2055610456565b6104f990610619565b610271565b6312c50cad60e11b5f5260045ffd5b630ea075bf60e21b5f5260045ffd5b636569570160e11b5f5260045ffd5b63f23d795560e01b5f5260045ffd5b346100c45760203660031901126100c45760206105586004356105f1565b604051908152f35b346100c45760203660031901126100c45760205f54604051908152f35b346100c4575f3660031901126100c4576020600154604051908152f35b346100c4575f3660031901126100c4577f00000000000000000000000000000000000000000000000000000000000000006001600160a01b03168152602090f35b600435906001600160a01b03821682036100c457565b801561061457600654811461060f575f5260d060205260405f205490565b504390565b505f90565b5f19811461037f576001019056fea26469706673582212207f1f11dcf61cb4b218703515d295684d5da4d27067fe4eea546f40b228b3cc2a64736f6c634300081c0033","linkReferences":{}},"methodIdentifiers":{"TRUSTED_BACKEND()":"02b2bfe1","getCensusRoot()":"c1da8691","getRootBlockNumber(uint256)":"650e5fcf","getTotalVotingPowerAtRoot(uint256)":"21541146","nullifierUsed(uint256)":"79f95ee9","register(address,uint256)":"6d705ebb","treeDepth()":"16a56c41","treeSize()":"8d1ddfb1","weightOf(address)":"dd4bc101"},"storageLayout":{"storage":[{"astId":38347,"contract":"src/TrustedCensus.sol:TrustedCensus","label":"_tree","offset":0,"slot":"0","type":"t_struct(LeanIMTData)35587_storage"},{"astId":38351,"contract":"src/TrustedCensus.sol:TrustedCensus","label":"weightOf","offset":0,"slot":"4","type":"t_mapping(t_address,t_uint88)"},{"astId":38355,"contract":"src/TrustedCensus.sol:TrustedCensus","label":"nullifierUsed","offset":0,"slot":"5","type":"t_mapping(t_uint256,t_bool)"},{"astId":38360,"contract":"src/TrustedCensus.sol:TrustedCensus","label":"_currentRoot","offset":0,"slot":"6","type":"t_uint256"},{"astId":38364,"contract":"src/TrustedCensus.sol:TrustedCensus","label":"_historyRoots","offset":0,"slot":"7","type":"t_array(t_uint256)100_storage"},{"astId":38368,"contract":"src/TrustedCensus.sol:TrustedCensus","label":"_historyLastValidBlock","offset":0,"slot":"107","type":"t_array(t_uint256)100_storage"},{"astId":38370,"contract":"src/TrustedCensus.sol:TrustedCensus","label":"_historyIndex","offset":0,"slot":"207","type":"t_uint256"},{"astId":38374,"contract":"src/TrustedCensus.sol:TrustedCensus","label":"_rootLastValidBlock","offset":0,"slot":"208","type":"t_mapping(t_uint256,t_uint256)"}],"types":{"t_address":{"encoding":"inplace","label":"address","numberOfBytes":"20"},"t_array(t_uint256)100_storage":{"encoding":"inplace","label":"uint256[100]","numberOfBytes":"3200","base":"t_uint256"},"t_bool":{"encoding":"inplace","label":"bool","numberOfBytes":"1"},"t_mapping(t_address,t_uint88)":{"encoding":"mapping","key":"t_address","label":"mapping(address => uint88)","numberOfBytes":"32","value":"t_uint88"},"t_mapping(t_uint256,t_bool)":{"encoding":"mapping","key":"t_uint256","label":"mapping(uint256 => bool)","numberOfBytes":"32","value":"t_bool"},"t_mapping(t_uint256,t_uint256)":{"encoding":"mapping","key":"t_uint256","label":"mapping(uint256 => uint256)","numberOfBytes":"32","value":"t_uint256"},"t_struct(LeanIMTData)35587_storage":{"encoding":"inplace","label":"struct LeanIMTData","numberOfBytes":"128","members":[{"astId":35576,"contract":"src/TrustedCensus.sol:TrustedCensus","label":"size","offset":0,"slot":"0","type":"t_uint256"},{"astId":35578,"contract":"src/TrustedCensus.sol:TrustedCensus","label":"depth","offset":0,"slot":"1","type":"t_uint256"},{"astId":35582,"contract":"src/TrustedCensus.sol:TrustedCensus","label":"sideNodes","offset":0,"slot":"2","type":"t_mapping(t_uint256,t_uint256)"},{"astId":35586,"contract":"src/TrustedCensus.sol:TrustedCensus","label":"leaves","offset":0,"slot":"3","type":"t_mapping(t_uint256,t_uint256)"}]},"t_uint256":{"encoding":"inplace","label":"uint256","numberOfBytes":"32"},"t_uint88":{"encoding":"inplace","label":"uint88","numberOfBytes":"11"}}},"id":26}